{
  "contractName": "ZombieHelper",
  "abi": [
    {
      "anonymous": false,
      "inputs": [
        {
          "indexed": false,
          "internalType": "uint256",
          "name": "zombieId",
          "type": "uint256"
        },
        {
          "indexed": false,
          "internalType": "string",
          "name": "name",
          "type": "string"
        },
        {
          "indexed": false,
          "internalType": "uint256",
          "name": "dna",
          "type": "uint256"
        }
      ],
      "name": "NewZombie",
      "type": "event"
    },
    {
      "anonymous": false,
      "inputs": [
        {
          "indexed": true,
          "internalType": "address",
          "name": "previousOwner",
          "type": "address"
        },
        {
          "indexed": true,
          "internalType": "address",
          "name": "newOwner",
          "type": "address"
        }
      ],
      "name": "OwnershipTransferred",
      "type": "event"
    },
    {
      "inputs": [],
      "name": "_Ownable",
      "outputs": [],
      "stateMutability": "nonpayable",
      "type": "function"
    },
    {
      "inputs": [
        {
          "internalType": "string",
          "name": "_name",
          "type": "string"
        }
      ],
      "name": "createRandomZombie",
      "outputs": [],
      "stateMutability": "nonpayable",
      "type": "function"
    },
    {
      "inputs": [
        {
          "internalType": "uint256",
          "name": "_zombieId",
          "type": "uint256"
        },
        {
          "internalType": "uint256",
          "name": "_kittyId",
          "type": "uint256"
        }
      ],
      "name": "feedOnKitty",
      "outputs": [],
      "stateMutability": "nonpayable",
      "type": "function"
    },
    {
      "inputs": [],
      "name": "owner",
      "outputs": [
        {
          "internalType": "address",
          "name": "",
          "type": "address"
        }
      ],
      "stateMutability": "view",
      "type": "function"
    },
    {
      "inputs": [
        {
          "internalType": "address",
          "name": "_address",
          "type": "address"
        }
      ],
      "name": "setKittyContractAddress",
      "outputs": [],
      "stateMutability": "nonpayable",
      "type": "function"
    },
    {
      "inputs": [
        {
          "internalType": "address",
          "name": "newOwner",
          "type": "address"
        }
      ],
      "name": "transferOwnership",
      "outputs": [],
      "stateMutability": "nonpayable",
      "type": "function"
    },
    {
      "inputs": [
        {
          "internalType": "uint256",
          "name": "",
          "type": "uint256"
        }
      ],
      "name": "zombieToOwner",
      "outputs": [
        {
          "internalType": "address",
          "name": "",
          "type": "address"
        }
      ],
      "stateMutability": "view",
      "type": "function"
    },
    {
      "inputs": [
        {
          "internalType": "uint256",
          "name": "",
          "type": "uint256"
        }
      ],
      "name": "zombies",
      "outputs": [
        {
          "internalType": "string",
          "name": "name",
          "type": "string"
        },
        {
          "internalType": "uint256",
          "name": "dna",
          "type": "uint256"
        },
        {
          "internalType": "uint32",
          "name": "level",
          "type": "uint32"
        },
        {
          "internalType": "uint32",
          "name": "readyTime",
          "type": "uint32"
        },
        {
          "internalType": "uint16",
          "name": "winCount",
          "type": "uint16"
        },
        {
          "internalType": "uint16",
          "name": "lossCount",
          "type": "uint16"
        }
      ],
      "stateMutability": "view",
      "type": "function"
    },
    {
      "inputs": [
        {
          "internalType": "uint256",
          "name": "balance",
          "type": "uint256"
        }
      ],
      "name": "withdraw",
      "outputs": [],
      "stateMutability": "nonpayable",
      "type": "function"
    },
    {
      "inputs": [
        {
          "internalType": "uint256",
          "name": "_fee",
          "type": "uint256"
        }
      ],
      "name": "setLevelUpFee",
      "outputs": [],
      "stateMutability": "nonpayable",
      "type": "function"
    },
    {
      "inputs": [
        {
          "internalType": "uint256",
          "name": "_zombieId",
          "type": "uint256"
        }
      ],
      "name": "levelUp",
      "outputs": [],
      "stateMutability": "payable",
      "type": "function"
    },
    {
      "inputs": [
        {
          "internalType": "uint256",
          "name": "_zombieId",
          "type": "uint256"
        },
        {
          "internalType": "string",
          "name": "_newName",
          "type": "string"
        }
      ],
      "name": "changeName",
      "outputs": [],
      "stateMutability": "nonpayable",
      "type": "function"
    },
    {
      "inputs": [
        {
          "internalType": "uint256",
          "name": "_zombieId",
          "type": "uint256"
        },
        {
          "internalType": "uint256",
          "name": "_newDna",
          "type": "uint256"
        }
      ],
      "name": "changeDna",
      "outputs": [],
      "stateMutability": "nonpayable",
      "type": "function"
    },
    {
      "inputs": [
        {
          "internalType": "address",
          "name": "_owner",
          "type": "address"
        }
      ],
      "name": "getZombiesByOwner",
      "outputs": [
        {
          "internalType": "uint256[]",
          "name": "",
          "type": "uint256[]"
        }
      ],
      "stateMutability": "view",
      "type": "function"
    }
  ],
  "bytecode": "0x60806040526010600155600154600a6200001a91906200009e565b6002556201518060035566038d7ea4c680006008553480156200003c57600080fd5b5062000221565b6000808291508390505b600185111562000095578086048111156200006d576200006c620001e5565b5b60018516156200007d5780820291505b80810290506200008d8562000214565b94506200004d565b94509492505050565b6000620000ab82620001db565b9150620000b883620001db565b9250620000e77fffffffffffffffffffffffffffffffffffffffffffffffffffffffffffffffff8484620000ef565b905092915050565b600082620001015760019050620001d4565b81620001115760009050620001d4565b81600181146200012a576002811462000135576200016b565b6001915050620001d4565b60ff8411156200014a5762000149620001e5565b5b8360020a915084821115620001645762000163620001e5565b5b50620001d4565b5060208310610133831016604e8410600b8410161715620001a55782820a9050838111156200019f576200019e620001e5565b5b620001d4565b620001b4848484600162000043565b92509050818404811115620001ce57620001cd620001e5565b5b81810290505b9392505050565b6000819050919050565b7f4e487b7100000000000000000000000000000000000000000000000000000000600052601160045260246000fd5b6000600282049050919050565b611d0c80620002316000396000f3fe6080604052600436106100fa576000357c0100000000000000000000000000000000000000000000000000000000900480635faf28801161009c578063a78d85ae11610076578063a78d85ae146102cf578063c39cbef1146102e6578063ccf670f81461030f578063f2fde38b14610338576100fa565b80635faf2880146102525780637bff0a011461027b5780638da5cb5b146102a4576100fa565b80632e1a7d4d116100d85780632e1a7d4d146101865780634412e104146101af578063528b7b8f146101ec5780635f4623f114610229576100fa565b80630ce90ec2146100ff57806317a7f4cc1461011b5780632052465e14610144575b600080fd5b610119600480360381019061011491906115ce565b610361565b005b34801561012757600080fd5b50610142600480360381019061013d919061164b565b6103fc565b005b34801561015057600080fd5b5061016b600480360381019061016691906115ce565b610545565b60405161017d96959493929190611806565b60405180910390f35b34801561019257600080fd5b506101ad60048036038101906101a891906115ce565b610655565b005b3480156101bb57600080fd5b506101d660048036038101906101d19190611489565b610717565b6040516101e391906117e4565b60405180910390f35b3480156101f857600080fd5b50610213600480360381019061020e91906115ce565b6108b6565b60405161022091906117c9565b60405180910390f35b34801561023557600080fd5b50610250600480360381019061024b9190611489565b6108e9565b005b34801561025e57600080fd5b506102796004803603810190610274919061164b565b610985565b005b34801561028757600080fd5b506102a2600480360381019061029d919061158d565b610ab9565b005b3480156102b057600080fd5b506102b9610b3a565b6040516102c691906117c9565b60405180910390f35b3480156102db57600080fd5b506102e4610b5e565b005b3480156102f257600080fd5b5061030d600480360381019061030891906115f7565b610ba0565b005b34801561031b57600080fd5b50610336600480360381019061033191906115ce565b610ce4565b005b34801561034457600080fd5b5061035f600480360381019061035a9190611489565b610d46565b005b600854341461036f57600080fd5b600481815481106103a9577f4e487b7100000000000000000000000000000000000000000000000000000000600052603260045260246000fd5b9060005260206000209060030201600201600081819054906101000a900463ffffffff16809291906103da90611b66565b91906101000a81548163ffffffff021916908363ffffffff1602179055505050565b6000600760009054906101000a900473ffffffffffffffffffffffffffffffffffffffff1673ffffffffffffffffffffffffffffffffffffffff1663e98b7f4d836040518263ffffffff167c0100000000000000000000000000000000000000000000000000000000028152600401610475919061186e565b6101406040518083038186803b15801561048e57600080fd5b505afa1580156104a2573d6000803e3d6000fd5b505050506040513d601f19601f820116820180604052508101906104c691906114b2565b9091929394959697985090919293949596975090919293949596509091929394955090919293945090919293509091925090915090508091505061054083826040518060400160405280600581526020017f6b69747479000000000000000000000000000000000000000000000000000000815250610e95565b505050565b6004818154811061055557600080fd5b906000526020600020906003020160009150905080600001805461057890611aeb565b80601f01602080910402602001604051908101604052809291908181526020018280546105a490611aeb565b80156105f15780601f106105c6576101008083540402835291602001916105f1565b820191906000526020600020905b8154815290600101906020018083116105d457829003601f168201915b5050505050908060010154908060020160009054906101000a900463ffffffff16908060020160049054906101000a900463ffffffff16908060020160089054906101000a900461ffff169080600201600a9054906101000a900461ffff16905086565b60008054906101000a900473ffffffffffffffffffffffffffffffffffffffff1673ffffffffffffffffffffffffffffffffffffffff163373ffffffffffffffffffffffffffffffffffffffff16146106ad57600080fd5b60008054906101000a900473ffffffffffffffffffffffffffffffffffffffff1673ffffffffffffffffffffffffffffffffffffffff166108fc829081150290604051600060405180830381858888f19350505050158015610713573d6000803e3d6000fd5b5050565b60606000600660008473ffffffffffffffffffffffffffffffffffffffff1673ffffffffffffffffffffffffffffffffffffffff1681526020019081526020016000205467ffffffffffffffff81111561079a577f4e487b7100000000000000000000000000000000000000000000000000000000600052604160045260246000fd5b6040519080825280602002602001820160405280156107c85781602001602082028036833780820191505090505b5090506000805b6004805490508110156108ab578473ffffffffffffffffffffffffffffffffffffffff166005600083815260200190815260200160002060009054906101000a900473ffffffffffffffffffffffffffffffffffffffff1673ffffffffffffffffffffffffffffffffffffffff161415610898578083838151811061087d577f4e487b7100000000000000000000000000000000000000000000000000000000600052603260045260246000fd5b602002602001018181525050818061089490611b1d565b9250505b80806108a390611b1d565b9150506107cf565b508192505050919050565b60056020528060005260406000206000915054906101000a900473ffffffffffffffffffffffffffffffffffffffff1681565b60008054906101000a900473ffffffffffffffffffffffffffffffffffffffff1673ffffffffffffffffffffffffffffffffffffffff163373ffffffffffffffffffffffffffffffffffffffff161461094157600080fd5b80600760006101000a81548173ffffffffffffffffffffffffffffffffffffffff021916908373ffffffffffffffffffffffffffffffffffffffff16021790555050565b60148281600482815481106109c3577f4e487b7100000000000000000000000000000000000000000000000000000000600052603260045260246000fd5b906000526020600020906003020160020160009054906101000a900463ffffffff1663ffffffff1610156109f657600080fd5b836005600082815260200190815260200160002060009054906101000a900473ffffffffffffffffffffffffffffffffffffffff1673ffffffffffffffffffffffffffffffffffffffff163373ffffffffffffffffffffffffffffffffffffffff1614610a6257600080fd5b8360048681548110610a9d577f4e487b7100000000000000000000000000000000000000000000000000000000600052603260045260246000fd5b9060005260206000209060030201600101819055505050505050565b6000600660003373ffffffffffffffffffffffffffffffffffffffff1673ffffffffffffffffffffffffffffffffffffffff1681526020019081526020016000205414610b0557600080fd5b6000610b1082611054565b9050606481610b1f9190611b93565b81610b2a9190611a0f565b9050610b36828261109a565b5050565b60008054906101000a900473ffffffffffffffffffffffffffffffffffffffff1681565b336000806101000a81548173ffffffffffffffffffffffffffffffffffffffff021916908373ffffffffffffffffffffffffffffffffffffffff160217905550565b6002828160048281548110610bde577f4e487b7100000000000000000000000000000000000000000000000000000000600052603260045260246000fd5b906000526020600020906003020160020160009054906101000a900463ffffffff1663ffffffff161015610c1157600080fd5b836005600082815260200190815260200160002060009054906101000a900473ffffffffffffffffffffffffffffffffffffffff1673ffffffffffffffffffffffffffffffffffffffff163373ffffffffffffffffffffffffffffffffffffffff1614610c7d57600080fd5b8360048681548110610cb8577f4e487b7100000000000000000000000000000000000000000000000000000000600052603260045260246000fd5b90600052602060002090600302016000019080519060200190610cdc92919061132a565b505050505050565b60008054906101000a900473ffffffffffffffffffffffffffffffffffffffff1673ffffffffffffffffffffffffffffffffffffffff163373ffffffffffffffffffffffffffffffffffffffff1614610d3c57600080fd5b8060088190555050565b60008054906101000a900473ffffffffffffffffffffffffffffffffffffffff1673ffffffffffffffffffffffffffffffffffffffff163373ffffffffffffffffffffffffffffffffffffffff1614610d9e57600080fd5b600073ffffffffffffffffffffffffffffffffffffffff168173ffffffffffffffffffffffffffffffffffffffff161415610dd857600080fd5b8073ffffffffffffffffffffffffffffffffffffffff1660008054906101000a900473ffffffffffffffffffffffffffffffffffffffff1673ffffffffffffffffffffffffffffffffffffffff167f8be0079c531659141344cd1fd0a4f28419497f9722a3daafe3b4186f6b6457e060405160405180910390a3806000806101000a81548173ffffffffffffffffffffffffffffffffffffffff021916908373ffffffffffffffffffffffffffffffffffffffff16021790555050565b826005600082815260200190815260200160002060009054906101000a900473ffffffffffffffffffffffffffffffffffffffff1673ffffffffffffffffffffffffffffffffffffffff163373ffffffffffffffffffffffffffffffffffffffff1614610f0157600080fd5b600060048581548110610f3d577f4e487b7100000000000000000000000000000000000000000000000000000000600052603260045260246000fd5b90600052602060002090600302019050610f56816112d0565b610f5f57600080fd5b60025484610f6d9190611b93565b935060006002858360010154610f839190611988565b610f8d91906119de565b90507f8d53323b21b9f304546f6d3e61cde865451064d614aa4912f395b755a9d8cad984604051602001610fc191906117b2565b604051602081830303815290604052805190602001201415611004576063606482610fec9190611b93565b82610ff79190611a0f565b6110019190611988565b90505b6110436040518060400160405280600681526020017f4e6f4e616d6500000000000000000000000000000000000000000000000000008152508261109a565b61104c826112f7565b505050505050565b6000808260405160200161106891906117b2565b60405160208183030381529060405280519060200120600190049050600254816110929190611b93565b915050919050565b60046040518060c00160405280848152602001838152602001600163ffffffff168152602001600354426110ce9190611988565b63ffffffff168152602001600061ffff168152602001600061ffff168152509080600181540180825580915050600190039060005260206000209060030201600090919091909150600082015181600001908051906020019061113292919061132a565b506020820151816001015560408201518160020160006101000a81548163ffffffff021916908363ffffffff16021790555060608201518160020160046101000a81548163ffffffff021916908363ffffffff16021790555060808201518160020160086101000a81548161ffff021916908361ffff16021790555060a082015181600201600a6101000a81548161ffff021916908361ffff1602179055505050600060016004805490506111e79190611a0f565b9050336005600083815260200190815260200160002060006101000a81548173ffffffffffffffffffffffffffffffffffffffff021916908373ffffffffffffffffffffffffffffffffffffffff160217905550600660003373ffffffffffffffffffffffffffffffffffffffff1673ffffffffffffffffffffffffffffffffffffffff168152602001908152602001600020600081548092919061128b90611b1d565b91905055507f88f026aacbbecc90c18411df4b1185fd8d9be2470f1962f192bf84a27d0704b78184846040516112c393929190611889565b60405180910390a1505050565b6000428260020160049054906101000a900463ffffffff1663ffffffff1611159050919050565b600354426113059190611988565b8160020160046101000a81548163ffffffff021916908363ffffffff16021790555050565b82805461133690611aeb565b90600052602060002090601f016020900481019282611358576000855561139f565b82601f1061137157805160ff191683800117855561139f565b8280016001018555821561139f579182015b8281111561139e578251825591602001919060010190611383565b5b5090506113ac91906113b0565b5090565b5b808211156113c95760008160009055506001016113b1565b5090565b60006113e06113db846118f8565b6118c7565b9050828152602081018484840111156113f857600080fd5b611403848285611aa9565b509392505050565b60008135905061141a81611c91565b92915050565b60008151905061142f81611ca8565b92915050565b600082601f83011261144657600080fd5b81356114568482602086016113cd565b91505092915050565b60008135905061146e81611cbf565b92915050565b60008151905061148381611cbf565b92915050565b60006020828403121561149b57600080fd5b60006114a98482850161140b565b91505092915050565b6000806000806000806000806000806101408b8d0312156114d257600080fd5b60006114e08d828e01611420565b9a505060206114f18d828e01611420565b99505060406115028d828e01611474565b98505060606115138d828e01611474565b97505060806115248d828e01611474565b96505060a06115358d828e01611474565b95505060c06115468d828e01611474565b94505060e06115578d828e01611474565b9350506101006115698d828e01611474565b92505061012061157b8d828e01611474565b9150509295989b9194979a5092959850565b60006020828403121561159f57600080fd5b600082013567ffffffffffffffff8111156115b957600080fd5b6115c584828501611435565b91505092915050565b6000602082840312156115e057600080fd5b60006115ee8482850161145f565b91505092915050565b6000806040838503121561160a57600080fd5b60006116188582860161145f565b925050602083013567ffffffffffffffff81111561163557600080fd5b61164185828601611435565b9150509250929050565b6000806040838503121561165e57600080fd5b600061166c8582860161145f565b925050602061167d8582860161145f565b9150509250929050565b60006116938383611785565b60208301905092915050565b6116a881611a43565b82525050565b60006116b982611938565b6116c3818561195b565b93506116ce83611928565b8060005b838110156116ff5781516116e68882611687565b97506116f18361194e565b9250506001810190506116d2565b5085935050505092915050565b600061171782611943565b611721818561196c565b9350611731818560208601611ab8565b61173a81611c80565b840191505092915050565b600061175082611943565b61175a818561197d565b935061176a818560208601611ab8565b80840191505092915050565b61177f81611a61565b82525050565b61178e81611a8f565b82525050565b61179d81611a8f565b82525050565b6117ac81611a99565b82525050565b60006117be8284611745565b915081905092915050565b60006020820190506117de600083018461169f565b92915050565b600060208201905081810360008301526117fe81846116ae565b905092915050565b600060c0820190508181036000830152611820818961170c565b905061182f6020830188611794565b61183c60408301876117a3565b61184960608301866117a3565b6118566080830185611776565b61186360a0830184611776565b979650505050505050565b60006020820190506118836000830184611794565b92915050565b600060608201905061189e6000830186611794565b81810360208301526118b0818561170c565b90506118bf6040830184611794565b949350505050565b6000604051905081810181811067ffffffffffffffff821117156118ee576118ed611c51565b5b8060405250919050565b600067ffffffffffffffff82111561191357611912611c51565b5b601f19601f8301169050602081019050919050565b6000819050602082019050919050565b600081519050919050565b600081519050919050565b6000602082019050919050565b600082825260208201905092915050565b600082825260208201905092915050565b600081905092915050565b600061199382611a8f565b915061199e83611a8f565b9250827fffffffffffffffffffffffffffffffffffffffffffffffffffffffffffffffff038211156119d3576119d2611bc4565b5b828201905092915050565b60006119e982611a8f565b91506119f483611a8f565b925082611a0457611a03611bf3565b5b828204905092915050565b6000611a1a82611a8f565b9150611a2583611a8f565b925082821015611a3857611a37611bc4565b5b828203905092915050565b6000611a4e82611a6f565b9050919050565b60008115159050919050565b600061ffff82169050919050565b600073ffffffffffffffffffffffffffffffffffffffff82169050919050565b6000819050919050565b600063ffffffff82169050919050565b82818337600083830152505050565b60005b83811015611ad6578082015181840152602081019050611abb565b83811115611ae5576000848401525b50505050565b60006002820490506001821680611b0357607f821691505b60208210811415611b1757611b16611c22565b5b50919050565b6000611b2882611a8f565b91507fffffffffffffffffffffffffffffffffffffffffffffffffffffffffffffffff821415611b5b57611b5a611bc4565b5b600182019050919050565b6000611b7182611a99565b915063ffffffff821415611b8857611b87611bc4565b5b600182019050919050565b6000611b9e82611a8f565b9150611ba983611a8f565b925082611bb957611bb8611bf3565b5b828206905092915050565b7f4e487b7100000000000000000000000000000000000000000000000000000000600052601160045260246000fd5b7f4e487b7100000000000000000000000000000000000000000000000000000000600052601260045260246000fd5b7f4e487b7100000000000000000000000000000000000000000000000000000000600052602260045260246000fd5b7f4e487b7100000000000000000000000000000000000000000000000000000000600052604160045260246000fd5b6000601f19601f8301169050919050565b611c9a81611a43565b8114611ca557600080fd5b50565b611cb181611a55565b8114611cbc57600080fd5b50565b611cc881611a8f565b8114611cd357600080fd5b5056fea2646970667358221220ce39a0e849a9a3cedcd73f25cc1105d36afd2a0c91818996c2ee10011a8c17c064736f6c63430008000033",
  "immutableReferences": {},
  "source": "// SPDX-License-Identifier: MIT\r\npragma solidity ^0.8.0;\r\n\r\nimport \"./zombiefeeding.sol\";\r\n\r\ncontract ZombieHelper is ZombieFeeding {\r\n\r\n  uint levelUpFee = 0.001 ether;\r\n\r\n  modifier aboveLevel(uint _level, uint _zombieId) {\r\n    require(zombies[_zombieId].level >= _level);\r\n    _;\r\n  }\r\n\r\n  function withdraw(uint256 balance) external onlyOwner {\r\n    payable(owner).transfer(balance);\r\n  }\r\n\r\n  function setLevelUpFee(uint _fee) external onlyOwner {\r\n    levelUpFee = _fee;\r\n  }\r\n\r\n  function levelUp(uint _zombieId) external payable {\r\n    require(msg.value == levelUpFee);\r\n    zombies[_zombieId].level++;\r\n  }\r\n\r\n  function changeName(uint _zombieId, string memory _newName) external aboveLevel(2, _zombieId) onlyOwnerOf(_zombieId) {\r\n    zombies[_zombieId].name = _newName;\r\n  }\r\n\r\n  function changeDna(uint _zombieId, uint _newDna) external aboveLevel(20, _zombieId) onlyOwnerOf(_zombieId) {\r\n    zombies[_zombieId].dna = _newDna;\r\n  }\r\n\r\n  function getZombiesByOwner(address _owner) external view returns(uint[] memory) {\r\n    uint[] memory result = new uint[](ownerZombieCount[_owner]);\r\n    uint counter = 0;\r\n    for (uint i = 0; i < zombies.length; i++) {\r\n      if (zombieToOwner[i] == _owner) {\r\n        result[counter] = i;\r\n        counter++;\r\n      }\r\n    }\r\n    return result;\r\n  }\r\n\r\n}\r\n",
  "sourcePath": "C:\\test\\0_Blockchain\\contracts\\zombiehelper.sol",
  "compiler": {
    "name": "solc",
    "version": "0.8.0+commit.c7dfd78e.Emscripten.clang"
  },
  "schemaVersion": "3.4.10",
  "updatedAt": "2022-09-26T13:26:48.286Z",
  "devdoc": {
    "kind": "dev",
    "methods": {
      "_Ownable()": {
        "details": "The Ownable constructor sets the original `owner` of the contract to the sender account."
      },
      "transferOwnership(address)": {
        "details": "Allows the current owner to transfer control of the contract to a newOwner.",
        "params": {
          "newOwner": "The address to transfer ownership to."
        }
      }
    },
    "version": 1
  },
  "userdoc": {
    "kind": "user",
    "methods": {},
    "version": 1
  }
}