{
  "contractName": "ZombieFactory",
  "abi": [
    {
      "anonymous": false,
      "inputs": [
        {
          "indexed": false,
          "internalType": "uint256",
          "name": "zombieId",
          "type": "uint256"
        },
        {
          "indexed": false,
          "internalType": "string",
          "name": "name",
          "type": "string"
        },
        {
          "indexed": false,
          "internalType": "uint256",
          "name": "dna",
          "type": "uint256"
        }
      ],
      "name": "NewZombie",
      "type": "event"
    },
    {
      "anonymous": false,
      "inputs": [
        {
          "indexed": true,
          "internalType": "address",
          "name": "previousOwner",
          "type": "address"
        },
        {
          "indexed": true,
          "internalType": "address",
          "name": "newOwner",
          "type": "address"
        }
      ],
      "name": "OwnershipTransferred",
      "type": "event"
    },
    {
      "inputs": [],
      "name": "_Ownable",
      "outputs": [],
      "stateMutability": "nonpayable",
      "type": "function"
    },
    {
      "inputs": [],
      "name": "owner",
      "outputs": [
        {
          "internalType": "address",
          "name": "",
          "type": "address"
        }
      ],
      "stateMutability": "view",
      "type": "function"
    },
    {
      "inputs": [
        {
          "internalType": "address",
          "name": "newOwner",
          "type": "address"
        }
      ],
      "name": "transferOwnership",
      "outputs": [],
      "stateMutability": "nonpayable",
      "type": "function"
    },
    {
      "inputs": [
        {
          "internalType": "uint256",
          "name": "",
          "type": "uint256"
        }
      ],
      "name": "zombieToOwner",
      "outputs": [
        {
          "internalType": "address",
          "name": "",
          "type": "address"
        }
      ],
      "stateMutability": "view",
      "type": "function"
    },
    {
      "inputs": [
        {
          "internalType": "uint256",
          "name": "",
          "type": "uint256"
        }
      ],
      "name": "zombies",
      "outputs": [
        {
          "internalType": "string",
          "name": "name",
          "type": "string"
        },
        {
          "internalType": "uint256",
          "name": "dna",
          "type": "uint256"
        },
        {
          "internalType": "uint32",
          "name": "level",
          "type": "uint32"
        },
        {
          "internalType": "uint32",
          "name": "readyTime",
          "type": "uint32"
        },
        {
          "internalType": "uint16",
          "name": "winCount",
          "type": "uint16"
        },
        {
          "internalType": "uint16",
          "name": "lossCount",
          "type": "uint16"
        }
      ],
      "stateMutability": "view",
      "type": "function"
    },
    {
      "inputs": [
        {
          "internalType": "string",
          "name": "_name",
          "type": "string"
        }
      ],
      "name": "createRandomZombie",
      "outputs": [],
      "stateMutability": "nonpayable",
      "type": "function"
    }
  ],
  "bytecode": "0x60806040526010600155600154600a6200001a919062000093565b600255620151806003553480156200003157600080fd5b5062000216565b6000808291508390505b60018511156200008a57808604811115620000625762000061620001da565b5b6001851615620000725780820291505b8081029050620000828562000209565b945062000042565b94509492505050565b6000620000a082620001d0565b9150620000ad83620001d0565b9250620000dc7fffffffffffffffffffffffffffffffffffffffffffffffffffffffffffffffff8484620000e4565b905092915050565b600082620000f65760019050620001c9565b81620001065760009050620001c9565b81600181146200011f57600281146200012a5762000160565b6001915050620001c9565b60ff8411156200013f576200013e620001da565b5b8360020a915084821115620001595762000158620001da565b5b50620001c9565b5060208310610133831016604e8410600b84101617156200019a5782820a905083811115620001945762000193620001da565b5b620001c9565b620001a9848484600162000038565b92509050818404811115620001c357620001c2620001da565b5b81810290505b9392505050565b6000819050919050565b7f4e487b7100000000000000000000000000000000000000000000000000000000600052601160045260246000fd5b6000600282049050919050565b610e0f80620002266000396000f3fe608060405234801561001057600080fd5b506004361061007f576000357c0100000000000000000000000000000000000000000000000000000000900480632052465e14610084578063528b7b8f146100b95780637bff0a01146100e95780638da5cb5b14610105578063a78d85ae14610123578063f2fde38b1461012d575b600080fd5b61009e600480360381019061009991906108dd565b610149565b6040516100b0969594939291906109de565b60405180910390f35b6100d360048036038101906100ce91906108dd565b610259565b6040516100e091906109c3565b60405180910390f35b61010360048036038101906100fe919061089c565b61028c565b005b61010d61030d565b60405161011a91906109c3565b60405180910390f35b61012b610331565b005b61014760048036038101906101429190610873565b610373565b005b6004818154811061015957600080fd5b906000526020600020906003020160009150905080600001805461017c90610c32565b80601f01602080910402602001604051908101604052809291908181526020018280546101a890610c32565b80156101f55780601f106101ca576101008083540402835291602001916101f5565b820191906000526020600020905b8154815290600101906020018083116101d857829003601f168201915b5050505050908060010154908060020160009054906101000a900463ffffffff16908060020160049054906101000a900463ffffffff16908060020160089054906101000a900461ffff169080600201600a9054906101000a900461ffff16905086565b60056020528060005260406000206000915054906101000a900473ffffffffffffffffffffffffffffffffffffffff1681565b6000600660003373ffffffffffffffffffffffffffffffffffffffff1673ffffffffffffffffffffffffffffffffffffffff16815260200190815260200160002054146102d857600080fd5b60006102e3826104c2565b90506064816102f29190610cad565b816102fd9190610b62565b90506103098282610508565b5050565b60008054906101000a900473ffffffffffffffffffffffffffffffffffffffff1681565b336000806101000a81548173ffffffffffffffffffffffffffffffffffffffff021916908373ffffffffffffffffffffffffffffffffffffffff160217905550565b60008054906101000a900473ffffffffffffffffffffffffffffffffffffffff1673ffffffffffffffffffffffffffffffffffffffff163373ffffffffffffffffffffffffffffffffffffffff16146103cb57600080fd5b600073ffffffffffffffffffffffffffffffffffffffff168173ffffffffffffffffffffffffffffffffffffffff16141561040557600080fd5b8073ffffffffffffffffffffffffffffffffffffffff1660008054906101000a900473ffffffffffffffffffffffffffffffffffffffff1673ffffffffffffffffffffffffffffffffffffffff167f8be0079c531659141344cd1fd0a4f28419497f9722a3daafe3b4186f6b6457e060405160405180910390a3806000806101000a81548173ffffffffffffffffffffffffffffffffffffffff021916908373ffffffffffffffffffffffffffffffffffffffff16021790555050565b600080826040516020016104d691906109ac565b60405160208183030381529060405280519060200120600190049050600254816105009190610cad565b915050919050565b60046040518060c00160405280848152602001838152602001600163ffffffff1681526020016003544261053c9190610b0c565b63ffffffff168152602001600061ffff168152602001600061ffff16815250908060018154018082558091505060019003906000526020600020906003020160009091909190915060008201518160000190805190602001906105a092919061073e565b506020820151816001015560408201518160020160006101000a81548163ffffffff021916908363ffffffff16021790555060608201518160020160046101000a81548163ffffffff021916908363ffffffff16021790555060808201518160020160086101000a81548161ffff021916908361ffff16021790555060a082015181600201600a6101000a81548161ffff021916908361ffff1602179055505050600060016004805490506106559190610b62565b9050336005600083815260200190815260200160002060006101000a81548173ffffffffffffffffffffffffffffffffffffffff021916908373ffffffffffffffffffffffffffffffffffffffff160217905550600660003373ffffffffffffffffffffffffffffffffffffffff1673ffffffffffffffffffffffffffffffffffffffff16815260200190815260200160002060008154809291906106f990610c64565b91905055507f88f026aacbbecc90c18411df4b1185fd8d9be2470f1962f192bf84a27d0704b781848460405161073193929190610a46565b60405180910390a1505050565b82805461074a90610c32565b90600052602060002090601f01602090048101928261076c57600085556107b3565b82601f1061078557805160ff19168380011785556107b3565b828001600101855582156107b3579182015b828111156107b2578251825591602001919060010190610797565b5b5090506107c091906107c4565b5090565b5b808211156107dd5760008160009055506001016107c5565b5090565b60006107f46107ef84610ab5565b610a84565b90508281526020810184848401111561080c57600080fd5b610817848285610bf0565b509392505050565b60008135905061082e81610dab565b92915050565b600082601f83011261084557600080fd5b81356108558482602086016107e1565b91505092915050565b60008135905061086d81610dc2565b92915050565b60006020828403121561088557600080fd5b60006108938482850161081f565b91505092915050565b6000602082840312156108ae57600080fd5b600082013567ffffffffffffffff8111156108c857600080fd5b6108d484828501610834565b91505092915050565b6000602082840312156108ef57600080fd5b60006108fd8482850161085e565b91505092915050565b61090f81610b96565b82525050565b600061092082610ae5565b61092a8185610af0565b935061093a818560208601610bff565b61094381610d9a565b840191505092915050565b600061095982610ae5565b6109638185610b01565b9350610973818560208601610bff565b80840191505092915050565b61098881610ba8565b82525050565b61099781610bd6565b82525050565b6109a681610be0565b82525050565b60006109b8828461094e565b915081905092915050565b60006020820190506109d86000830184610906565b92915050565b600060c08201905081810360008301526109f88189610915565b9050610a07602083018861098e565b610a14604083018761099d565b610a21606083018661099d565b610a2e608083018561097f565b610a3b60a083018461097f565b979650505050505050565b6000606082019050610a5b600083018661098e565b8181036020830152610a6d8185610915565b9050610a7c604083018461098e565b949350505050565b6000604051905081810181811067ffffffffffffffff82111715610aab57610aaa610d6b565b5b8060405250919050565b600067ffffffffffffffff821115610ad057610acf610d6b565b5b601f19601f8301169050602081019050919050565b600081519050919050565b600082825260208201905092915050565b600081905092915050565b6000610b1782610bd6565b9150610b2283610bd6565b9250827fffffffffffffffffffffffffffffffffffffffffffffffffffffffffffffffff03821115610b5757610b56610cde565b5b828201905092915050565b6000610b6d82610bd6565b9150610b7883610bd6565b925082821015610b8b57610b8a610cde565b5b828203905092915050565b6000610ba182610bb6565b9050919050565b600061ffff82169050919050565b600073ffffffffffffffffffffffffffffffffffffffff82169050919050565b6000819050919050565b600063ffffffff82169050919050565b82818337600083830152505050565b60005b83811015610c1d578082015181840152602081019050610c02565b83811115610c2c576000848401525b50505050565b60006002820490506001821680610c4a57607f821691505b60208210811415610c5e57610c5d610d3c565b5b50919050565b6000610c6f82610bd6565b91507fffffffffffffffffffffffffffffffffffffffffffffffffffffffffffffffff821415610ca257610ca1610cde565b5b600182019050919050565b6000610cb882610bd6565b9150610cc383610bd6565b925082610cd357610cd2610d0d565b5b828206905092915050565b7f4e487b7100000000000000000000000000000000000000000000000000000000600052601160045260246000fd5b7f4e487b7100000000000000000000000000000000000000000000000000000000600052601260045260246000fd5b7f4e487b7100000000000000000000000000000000000000000000000000000000600052602260045260246000fd5b7f4e487b7100000000000000000000000000000000000000000000000000000000600052604160045260246000fd5b6000601f19601f8301169050919050565b610db481610b96565b8114610dbf57600080fd5b50565b610dcb81610bd6565b8114610dd657600080fd5b5056fea2646970667358221220a299681fd83ad72d0907f590765b27b491bff78e5f29ae5a93a842419ad82d3864736f6c63430008000033",
  "immutableReferences": {},
  "source": "// SPDX-License-Identifier: MIT\r\npragma solidity ^0.8.0;\r\n\r\nimport \"./ownable.sol\";\r\nimport \"./safemath.sol\";\r\n\r\ncontract ZombieFactory is Ownable {\r\n\r\n  using SafeMath for uint256;\r\n\r\n  event NewZombie(uint zombieId, string name, uint dna);\r\n\r\n  uint dnaDigits = 16;\r\n  uint dnaModulus = 10 ** dnaDigits;\r\n  uint cooldownTime = 1 days;\r\n\r\n  struct Zombie {\r\n    string name;\r\n    uint dna;\r\n    uint32 level;\r\n    uint32 readyTime;\r\n    uint16 winCount;\r\n    uint16 lossCount;\r\n  }\r\n\r\n  Zombie[] public zombies;\r\n\r\n  mapping (uint => address) public zombieToOwner;\r\n  mapping (address => uint) ownerZombieCount;\r\n\r\n  function _createZombie(string memory _name, uint _dna) internal {\r\n    //uint id = zombies.push(Zombie(_name, _dna, 1, uint32(now + cooldownTime), 0, 0)) - 1;\r\n    zombies.push(Zombie(_name, _dna, 1, uint32(block.timestamp + cooldownTime), 0, 0));\r\n    uint id = zombies.length - 1;\r\n    zombieToOwner[id] = msg.sender;\r\n    ownerZombieCount[msg.sender]++;\r\n    emit NewZombie(id, _name, _dna);\r\n  }\r\n\r\n  function _generateRandomDna(string memory _str) private view returns (uint) {\r\n    uint rand = uint(keccak256(abi.encodePacked(_str)));\r\n    return rand % dnaModulus;\r\n  }\r\n\r\n  function createRandomZombie(string memory _name) public {\r\n    require(ownerZombieCount[msg.sender] == 0);\r\n    uint randDna = _generateRandomDna(_name);\r\n    randDna = randDna - randDna % 100;\r\n    _createZombie(_name, randDna);\r\n  }\r\n\r\n}\r\n",
  "sourcePath": "C:\\test\\0_Blockchain\\contracts\\zombiefactory.sol",
  "compiler": {
    "name": "solc",
    "version": "0.8.0+commit.c7dfd78e.Emscripten.clang"
  },
  "schemaVersion": "3.4.10",
  "updatedAt": "2022-09-26T13:26:48.250Z",
  "devdoc": {
    "kind": "dev",
    "methods": {
      "_Ownable()": {
        "details": "The Ownable constructor sets the original `owner` of the contract to the sender account."
      },
      "transferOwnership(address)": {
        "details": "Allows the current owner to transfer control of the contract to a newOwner.",
        "params": {
          "newOwner": "The address to transfer ownership to."
        }
      }
    },
    "version": 1
  },
  "userdoc": {
    "kind": "user",
    "methods": {},
    "version": 1
  }
}