{
  "contractName": "ZombieOwnership",
  "abi": [
    {
      "anonymous": false,
      "inputs": [
        {
          "indexed": true,
          "internalType": "address",
          "name": "_owner",
          "type": "address"
        },
        {
          "indexed": true,
          "internalType": "address",
          "name": "_approved",
          "type": "address"
        },
        {
          "indexed": false,
          "internalType": "uint256",
          "name": "_tokenId",
          "type": "uint256"
        }
      ],
      "name": "Approval",
      "type": "event"
    },
    {
      "anonymous": false,
      "inputs": [
        {
          "indexed": false,
          "internalType": "uint256",
          "name": "zombieId",
          "type": "uint256"
        },
        {
          "indexed": false,
          "internalType": "string",
          "name": "name",
          "type": "string"
        },
        {
          "indexed": false,
          "internalType": "uint256",
          "name": "dna",
          "type": "uint256"
        }
      ],
      "name": "NewZombie",
      "type": "event"
    },
    {
      "anonymous": false,
      "inputs": [
        {
          "indexed": true,
          "internalType": "address",
          "name": "previousOwner",
          "type": "address"
        },
        {
          "indexed": true,
          "internalType": "address",
          "name": "newOwner",
          "type": "address"
        }
      ],
      "name": "OwnershipTransferred",
      "type": "event"
    },
    {
      "anonymous": false,
      "inputs": [
        {
          "indexed": true,
          "internalType": "address",
          "name": "_from",
          "type": "address"
        },
        {
          "indexed": true,
          "internalType": "address",
          "name": "_to",
          "type": "address"
        },
        {
          "indexed": false,
          "internalType": "uint256",
          "name": "_tokenId",
          "type": "uint256"
        }
      ],
      "name": "Transfer",
      "type": "event"
    },
    {
      "inputs": [],
      "name": "_Ownable",
      "outputs": [],
      "stateMutability": "nonpayable",
      "type": "function"
    },
    {
      "inputs": [
        {
          "internalType": "uint256",
          "name": "_zombieId",
          "type": "uint256"
        },
        {
          "internalType": "uint256",
          "name": "_targetId",
          "type": "uint256"
        }
      ],
      "name": "attack",
      "outputs": [],
      "stateMutability": "nonpayable",
      "type": "function"
    },
    {
      "inputs": [
        {
          "internalType": "uint256",
          "name": "_zombieId",
          "type": "uint256"
        },
        {
          "internalType": "uint256",
          "name": "_newDna",
          "type": "uint256"
        }
      ],
      "name": "changeDna",
      "outputs": [],
      "stateMutability": "nonpayable",
      "type": "function"
    },
    {
      "inputs": [
        {
          "internalType": "uint256",
          "name": "_zombieId",
          "type": "uint256"
        },
        {
          "internalType": "string",
          "name": "_newName",
          "type": "string"
        }
      ],
      "name": "changeName",
      "outputs": [],
      "stateMutability": "nonpayable",
      "type": "function"
    },
    {
      "inputs": [
        {
          "internalType": "string",
          "name": "_name",
          "type": "string"
        }
      ],
      "name": "createRandomZombie",
      "outputs": [],
      "stateMutability": "nonpayable",
      "type": "function"
    },
    {
      "inputs": [
        {
          "internalType": "uint256",
          "name": "_zombieId",
          "type": "uint256"
        },
        {
          "internalType": "uint256",
          "name": "_kittyId",
          "type": "uint256"
        }
      ],
      "name": "feedOnKitty",
      "outputs": [],
      "stateMutability": "nonpayable",
      "type": "function"
    },
    {
      "inputs": [
        {
          "internalType": "address",
          "name": "_owner",
          "type": "address"
        }
      ],
      "name": "getZombiesByOwner",
      "outputs": [
        {
          "internalType": "uint256[]",
          "name": "",
          "type": "uint256[]"
        }
      ],
      "stateMutability": "view",
      "type": "function"
    },
    {
      "inputs": [
        {
          "internalType": "uint256",
          "name": "_zombieId",
          "type": "uint256"
        }
      ],
      "name": "levelUp",
      "outputs": [],
      "stateMutability": "payable",
      "type": "function"
    },
    {
      "inputs": [],
      "name": "owner",
      "outputs": [
        {
          "internalType": "address",
          "name": "",
          "type": "address"
        }
      ],
      "stateMutability": "view",
      "type": "function"
    },
    {
      "inputs": [
        {
          "internalType": "address",
          "name": "_address",
          "type": "address"
        }
      ],
      "name": "setKittyContractAddress",
      "outputs": [],
      "stateMutability": "nonpayable",
      "type": "function"
    },
    {
      "inputs": [
        {
          "internalType": "uint256",
          "name": "_fee",
          "type": "uint256"
        }
      ],
      "name": "setLevelUpFee",
      "outputs": [],
      "stateMutability": "nonpayable",
      "type": "function"
    },
    {
      "inputs": [
        {
          "internalType": "address",
          "name": "newOwner",
          "type": "address"
        }
      ],
      "name": "transferOwnership",
      "outputs": [],
      "stateMutability": "nonpayable",
      "type": "function"
    },
    {
      "inputs": [
        {
          "internalType": "uint256",
          "name": "balance",
          "type": "uint256"
        }
      ],
      "name": "withdraw",
      "outputs": [],
      "stateMutability": "nonpayable",
      "type": "function"
    },
    {
      "inputs": [
        {
          "internalType": "uint256",
          "name": "",
          "type": "uint256"
        }
      ],
      "name": "zombieToOwner",
      "outputs": [
        {
          "internalType": "address",
          "name": "",
          "type": "address"
        }
      ],
      "stateMutability": "view",
      "type": "function"
    },
    {
      "inputs": [
        {
          "internalType": "uint256",
          "name": "",
          "type": "uint256"
        }
      ],
      "name": "zombies",
      "outputs": [
        {
          "internalType": "string",
          "name": "name",
          "type": "string"
        },
        {
          "internalType": "uint256",
          "name": "dna",
          "type": "uint256"
        },
        {
          "internalType": "uint32",
          "name": "level",
          "type": "uint32"
        },
        {
          "internalType": "uint32",
          "name": "readyTime",
          "type": "uint32"
        },
        {
          "internalType": "uint16",
          "name": "winCount",
          "type": "uint16"
        },
        {
          "internalType": "uint16",
          "name": "lossCount",
          "type": "uint16"
        }
      ],
      "stateMutability": "view",
      "type": "function"
    },
    {
      "inputs": [
        {
          "internalType": "address",
          "name": "_owner",
          "type": "address"
        }
      ],
      "name": "balanceOf",
      "outputs": [
        {
          "internalType": "uint256",
          "name": "_balance",
          "type": "uint256"
        }
      ],
      "stateMutability": "view",
      "type": "function"
    },
    {
      "inputs": [
        {
          "internalType": "uint256",
          "name": "_tokenId",
          "type": "uint256"
        }
      ],
      "name": "ownerOf",
      "outputs": [
        {
          "internalType": "address",
          "name": "_owner",
          "type": "address"
        }
      ],
      "stateMutability": "view",
      "type": "function"
    },
    {
      "inputs": [
        {
          "internalType": "address",
          "name": "_to",
          "type": "address"
        },
        {
          "internalType": "uint256",
          "name": "_tokenId",
          "type": "uint256"
        }
      ],
      "name": "transfer",
      "outputs": [],
      "stateMutability": "nonpayable",
      "type": "function"
    },
    {
      "inputs": [
        {
          "internalType": "address",
          "name": "_to",
          "type": "address"
        },
        {
          "internalType": "uint256",
          "name": "_tokenId",
          "type": "uint256"
        }
      ],
      "name": "approve",
      "outputs": [],
      "stateMutability": "nonpayable",
      "type": "function"
    },
    {
      "inputs": [
        {
          "internalType": "uint256",
          "name": "_tokenId",
          "type": "uint256"
        }
      ],
      "name": "takeOwnership",
      "outputs": [],
      "stateMutability": "nonpayable",
      "type": "function"
    }
  ],
  "bytecode": "0x60806040526010600155600154600a6200001a9190620000a8565b6002556201518060035566038d7ea4c6800060085560006009556046600a553480156200004657600080fd5b506200022b565b6000808291508390505b60018511156200009f57808604811115620000775762000076620001ef565b5b6001851615620000875780820291505b808102905062000097856200021e565b945062000057565b94509492505050565b6000620000b582620001e5565b9150620000c283620001e5565b9250620000f17fffffffffffffffffffffffffffffffffffffffffffffffffffffffffffffffff8484620000f9565b905092915050565b6000826200010b5760019050620001de565b816200011b5760009050620001de565b81600181146200013457600281146200013f5762000175565b6001915050620001de565b60ff841115620001545762000153620001ef565b5b8360020a9150848211156200016e576200016d620001ef565b5b50620001de565b5060208310610133831016604e8410600b8410161715620001af5782820a905083811115620001a957620001a8620001ef565b5b620001de565b620001be84848460016200004d565b92509050818404811115620001d857620001d7620001ef565b5b81810290505b9392505050565b6000819050919050565b7f4e487b7100000000000000000000000000000000000000000000000000000000600052601160045260246000fd5b6000600282049050919050565b6127c7806200023b6000396000f3fe60806040526004361061013c576000357c01000000000000000000000000000000000000000000000000000000009004806370a08231116100bd578063b2e6ceeb11610081578063b2e6ceeb146103f4578063c39cbef11461041d578063ccf670f814610446578063e1fa76381461046f578063f2fde38b146104985761013c565b806370a08231146103235780637bff0a01146103605780638da5cb5b14610389578063a78d85ae146103b4578063a9059cbb146103cb5761013c565b80634412e104116101045780634412e1041461021a578063528b7b8f146102575780635f4623f1146102945780635faf2880146102bd5780636352211e146102e65761013c565b8063095ea7b3146101415780630ce90ec21461016a57806317a7f4cc146101865780632052465e146101af5780632e1a7d4d146101f1575b600080fd5b34801561014d57600080fd5b5061016860048036038101906101639190611e54565b6104c1565b005b610184600480360381019061017f9190611fac565b6105e9565b005b34801561019257600080fd5b506101ad60048036038101906101a89190612029565b610684565b005b3480156101bb57600080fd5b506101d660048036038101906101d19190611fac565b6107cd565b6040516101e89695949392919061224f565b60405180910390f35b3480156101fd57600080fd5b5061021860048036038101906102139190611fac565b6108dd565b005b34801561022657600080fd5b50610241600480360381019061023c9190611e2b565b61099f565b60405161024e919061222d565b60405180910390f35b34801561026357600080fd5b5061027e60048036038101906102799190611fac565b610b3e565b60405161028b9190612212565b60405180910390f35b3480156102a057600080fd5b506102bb60048036038101906102b69190611e2b565b610b71565b005b3480156102c957600080fd5b506102e460048036038101906102df9190612029565b610c0d565b005b3480156102f257600080fd5b5061030d60048036038101906103089190611fac565b610d41565b60405161031a9190612212565b60405180910390f35b34801561032f57600080fd5b5061034a60048036038101906103459190611e2b565b610d7e565b60405161035791906122b7565b60405180910390f35b34801561036c57600080fd5b5061038760048036038101906103829190611f6b565b610dc7565b005b34801561039557600080fd5b5061039e610e48565b6040516103ab9190612212565b60405180910390f35b3480156103c057600080fd5b506103c9610e6c565b005b3480156103d757600080fd5b506103f260048036038101906103ed9190611e54565b610eae565b005b34801561040057600080fd5b5061041b60048036038101906104169190611fac565b610f2a565b005b34801561042957600080fd5b50610444600480360381019061043f9190611fd5565b610fb1565b005b34801561045257600080fd5b5061046d60048036038101906104689190611fac565b6110f5565b005b34801561047b57600080fd5b5061049660048036038101906104919190612029565b611157565b005b3480156104a457600080fd5b506104bf60048036038101906104ba9190611e2b565b611404565b005b806005600082815260200190815260200160002060009054906101000a900473ffffffffffffffffffffffffffffffffffffffff1673ffffffffffffffffffffffffffffffffffffffff163373ffffffffffffffffffffffffffffffffffffffff161461052d57600080fd5b82600b600084815260200190815260200160002060006101000a81548173ffffffffffffffffffffffffffffffffffffffff021916908373ffffffffffffffffffffffffffffffffffffffff1602179055508273ffffffffffffffffffffffffffffffffffffffff163373ffffffffffffffffffffffffffffffffffffffff167f8c5be1e5ebec7d5bd14f71427d1e84f3dd0314c0f7b2291e5b200ac8c7c3b925846040516105dc91906122b7565b60405180910390a3505050565b60085434146105f757600080fd5b60048181548110610631577f4e487b7100000000000000000000000000000000000000000000000000000000600052603260045260246000fd5b9060005260206000209060030201600201600081819054906101000a900463ffffffff1680929190610662906125da565b91906101000a81548163ffffffff021916908363ffffffff1602179055505050565b6000600760009054906101000a900473ffffffffffffffffffffffffffffffffffffffff1673ffffffffffffffffffffffffffffffffffffffff1663e98b7f4d836040518263ffffffff167c01000000000000000000000000000000000000000000000000000000000281526004016106fd91906122b7565b6101406040518083038186803b15801561071657600080fd5b505afa15801561072a573d6000803e3d6000fd5b505050506040513d601f19601f8201168201806040525081019061074e9190611e90565b909192939495969798509091929394959697509091929394959650909192939495509091929394509091929350909192509091509050809150506107c883826040518060400160405280600581526020017f6b69747479000000000000000000000000000000000000000000000000000000815250611553565b505050565b600481815481106107dd57600080fd5b906000526020600020906003020160009150905080600001805461080090612534565b80601f016020809104026020016040519081016040528092919081815260200182805461082c90612534565b80156108795780601f1061084e57610100808354040283529160200191610879565b820191906000526020600020905b81548152906001019060200180831161085c57829003601f168201915b5050505050908060010154908060020160009054906101000a900463ffffffff16908060020160049054906101000a900463ffffffff16908060020160089054906101000a900461ffff169080600201600a9054906101000a900461ffff16905086565b60008054906101000a900473ffffffffffffffffffffffffffffffffffffffff1673ffffffffffffffffffffffffffffffffffffffff163373ffffffffffffffffffffffffffffffffffffffff161461093557600080fd5b60008054906101000a900473ffffffffffffffffffffffffffffffffffffffff1673ffffffffffffffffffffffffffffffffffffffff166108fc829081150290604051600060405180830381858888f1935050505015801561099b573d6000803e3d6000fd5b5050565b60606000600660008473ffffffffffffffffffffffffffffffffffffffff1673ffffffffffffffffffffffffffffffffffffffff1681526020019081526020016000205467ffffffffffffffff811115610a22577f4e487b7100000000000000000000000000000000000000000000000000000000600052604160045260246000fd5b604051908082528060200260200182016040528015610a505781602001602082028036833780820191505090505b5090506000805b600480549050811015610b33578473ffffffffffffffffffffffffffffffffffffffff166005600083815260200190815260200160002060009054906101000a900473ffffffffffffffffffffffffffffffffffffffff1673ffffffffffffffffffffffffffffffffffffffff161415610b205780838381518110610b05577f4e487b7100000000000000000000000000000000000000000000000000000000600052603260045260246000fd5b6020026020010181815250508180610b1c90612591565b9250505b8080610b2b90612591565b915050610a57565b508192505050919050565b60056020528060005260406000206000915054906101000a900473ffffffffffffffffffffffffffffffffffffffff1681565b60008054906101000a900473ffffffffffffffffffffffffffffffffffffffff1673ffffffffffffffffffffffffffffffffffffffff163373ffffffffffffffffffffffffffffffffffffffff1614610bc957600080fd5b80600760006101000a81548173ffffffffffffffffffffffffffffffffffffffff021916908373ffffffffffffffffffffffffffffffffffffffff16021790555050565b6014828160048281548110610c4b577f4e487b7100000000000000000000000000000000000000000000000000000000600052603260045260246000fd5b906000526020600020906003020160020160009054906101000a900463ffffffff1663ffffffff161015610c7e57600080fd5b836005600082815260200190815260200160002060009054906101000a900473ffffffffffffffffffffffffffffffffffffffff1673ffffffffffffffffffffffffffffffffffffffff163373ffffffffffffffffffffffffffffffffffffffff1614610cea57600080fd5b8360048681548110610d25577f4e487b7100000000000000000000000000000000000000000000000000000000600052603260045260246000fd5b9060005260206000209060030201600101819055505050505050565b60006005600083815260200190815260200160002060009054906101000a900473ffffffffffffffffffffffffffffffffffffffff169050919050565b6000600660008373ffffffffffffffffffffffffffffffffffffffff1673ffffffffffffffffffffffffffffffffffffffff168152602001908152602001600020549050919050565b6000600660003373ffffffffffffffffffffffffffffffffffffffff1673ffffffffffffffffffffffffffffffffffffffff1681526020019081526020016000205414610e1357600080fd5b6000610e1e82611712565b9050606481610e2d9190612635565b81610e389190612458565b9050610e448282611758565b5050565b60008054906101000a900473ffffffffffffffffffffffffffffffffffffffff1681565b336000806101000a81548173ffffffffffffffffffffffffffffffffffffffff021916908373ffffffffffffffffffffffffffffffffffffffff160217905550565b806005600082815260200190815260200160002060009054906101000a900473ffffffffffffffffffffffffffffffffffffffff1673ffffffffffffffffffffffffffffffffffffffff163373ffffffffffffffffffffffffffffffffffffffff1614610f1a57600080fd5b610f2533848461198e565b505050565b3373ffffffffffffffffffffffffffffffffffffffff16600b600083815260200190815260200160002060009054906101000a900473ffffffffffffffffffffffffffffffffffffffff1673ffffffffffffffffffffffffffffffffffffffff1614610f9557600080fd5b6000610fa082610d41565b9050610fad81338461198e565b5050565b6002828160048281548110610fef577f4e487b7100000000000000000000000000000000000000000000000000000000600052603260045260246000fd5b906000526020600020906003020160020160009054906101000a900463ffffffff1663ffffffff16101561102257600080fd5b836005600082815260200190815260200160002060009054906101000a900473ffffffffffffffffffffffffffffffffffffffff1673ffffffffffffffffffffffffffffffffffffffff163373ffffffffffffffffffffffffffffffffffffffff161461108e57600080fd5b83600486815481106110c9577f4e487b7100000000000000000000000000000000000000000000000000000000600052603260045260246000fd5b906000526020600020906003020160000190805190602001906110ed929190611ccc565b505050505050565b60008054906101000a900473ffffffffffffffffffffffffffffffffffffffff1673ffffffffffffffffffffffffffffffffffffffff163373ffffffffffffffffffffffffffffffffffffffff161461114d57600080fd5b8060088190555050565b816005600082815260200190815260200160002060009054906101000a900473ffffffffffffffffffffffffffffffffffffffff1673ffffffffffffffffffffffffffffffffffffffff163373ffffffffffffffffffffffffffffffffffffffff16146111c357600080fd5b6000600484815481106111ff577f4e487b7100000000000000000000000000000000000000000000000000000000600052603260045260246000fd5b9060005260206000209060030201905060006004848154811061124b577f4e487b7100000000000000000000000000000000000000000000000000000000600052603260045260246000fd5b9060005260206000209060030201905060006112676064611b76565b9050600a5481116113785782600201600881819054906101000a900461ffff168092919061129490612566565b91906101000a81548161ffff021916908361ffff1602179055505082600201600081819054906101000a900463ffffffff16809291906112d3906125da565b91906101000a81548163ffffffff021916908363ffffffff1602179055505081600201600a81819054906101000a900461ffff168092919061131490612566565b91906101000a81548161ffff021916908361ffff160217905550506113738683600101546040518060400160405280600681526020017f7a6f6d6269650000000000000000000000000000000000000000000000000000815250611553565b6113fc565b82600201600a81819054906101000a900461ffff168092919061139a90612566565b91906101000a81548161ffff021916908361ffff1602179055505081600201600881819054906101000a900461ffff16809291906113d790612566565b91906101000a81548161ffff021916908361ffff160217905550506113fb83611bd3565b5b505050505050565b60008054906101000a900473ffffffffffffffffffffffffffffffffffffffff1673ffffffffffffffffffffffffffffffffffffffff163373ffffffffffffffffffffffffffffffffffffffff161461145c57600080fd5b600073ffffffffffffffffffffffffffffffffffffffff168173ffffffffffffffffffffffffffffffffffffffff16141561149657600080fd5b8073ffffffffffffffffffffffffffffffffffffffff1660008054906101000a900473ffffffffffffffffffffffffffffffffffffffff1673ffffffffffffffffffffffffffffffffffffffff167f8be0079c531659141344cd1fd0a4f28419497f9722a3daafe3b4186f6b6457e060405160405180910390a3806000806101000a81548173ffffffffffffffffffffffffffffffffffffffff021916908373ffffffffffffffffffffffffffffffffffffffff16021790555050565b826005600082815260200190815260200160002060009054906101000a900473ffffffffffffffffffffffffffffffffffffffff1673ffffffffffffffffffffffffffffffffffffffff163373ffffffffffffffffffffffffffffffffffffffff16146115bf57600080fd5b6000600485815481106115fb577f4e487b7100000000000000000000000000000000000000000000000000000000600052603260045260246000fd5b9060005260206000209060030201905061161481611c06565b61161d57600080fd5b6002548461162b9190612635565b93506000600285836001015461164191906123d1565b61164b9190612427565b90507f8d53323b21b9f304546f6d3e61cde865451064d614aa4912f395b755a9d8cad98460405160200161167f91906121be565b6040516020818303038152906040528051906020012014156116c25760636064826116aa9190612635565b826116b59190612458565b6116bf91906123d1565b90505b6117016040518060400160405280600681526020017f4e6f4e616d65000000000000000000000000000000000000000000000000000081525082611758565b61170a82611bd3565b505050505050565b6000808260405160200161172691906121be565b60405160208183030381529060405280519060200120600190049050600254816117509190612635565b915050919050565b60046040518060c00160405280848152602001838152602001600163ffffffff1681526020016003544261178c91906123d1565b63ffffffff168152602001600061ffff168152602001600061ffff16815250908060018154018082558091505060019003906000526020600020906003020160009091909190915060008201518160000190805190602001906117f0929190611ccc565b506020820151816001015560408201518160020160006101000a81548163ffffffff021916908363ffffffff16021790555060608201518160020160046101000a81548163ffffffff021916908363ffffffff16021790555060808201518160020160086101000a81548161ffff021916908361ffff16021790555060a082015181600201600a6101000a81548161ffff021916908361ffff1602179055505050600060016004805490506118a59190612458565b9050336005600083815260200190815260200160002060006101000a81548173ffffffffffffffffffffffffffffffffffffffff021916908373ffffffffffffffffffffffffffffffffffffffff160217905550600660003373ffffffffffffffffffffffffffffffffffffffff1673ffffffffffffffffffffffffffffffffffffffff168152602001908152602001600020600081548092919061194990612591565b91905055507f88f026aacbbecc90c18411df4b1185fd8d9be2470f1962f192bf84a27d0704b7818484604051611981939291906122d2565b60405180910390a1505050565b6119e16001600660008573ffffffffffffffffffffffffffffffffffffffff1673ffffffffffffffffffffffffffffffffffffffff16815260200190815260200160002054611c2d90919063ffffffff16565b600660008473ffffffffffffffffffffffffffffffffffffffff1673ffffffffffffffffffffffffffffffffffffffff16815260200190815260200160002081905550611a776001600660003373ffffffffffffffffffffffffffffffffffffffff1673ffffffffffffffffffffffffffffffffffffffff16815260200190815260200160002054611c7f90919063ffffffff16565b600660003373ffffffffffffffffffffffffffffffffffffffff1673ffffffffffffffffffffffffffffffffffffffff16815260200190815260200160002081905550816005600083815260200190815260200160002060006101000a81548173ffffffffffffffffffffffffffffffffffffffff021916908373ffffffffffffffffffffffffffffffffffffffff1602179055508173ffffffffffffffffffffffffffffffffffffffff168373ffffffffffffffffffffffffffffffffffffffff167fddf252ad1be2c89b69c2b068fc378daa952ba7f163c4a11628f55a4df523b3ef83604051611b6991906122b7565b60405180910390a3505050565b600060096000815480929190611b8b90612591565b9190505550814233600954604051602001611ba8939291906121d5565b6040516020818303038152906040528051906020012060019004611bcc9190612635565b9050919050565b60035442611be191906123d1565b8160020160046101000a81548163ffffffff021916908363ffffffff16021790555050565b6000428260020160049054906101000a900463ffffffff1663ffffffff1611159050919050565b6000808284611c3c91906123d1565b905083811015611c75577f4e487b7100000000000000000000000000000000000000000000000000000000600052600160045260246000fd5b8091505092915050565b600082821115611cb8577f4e487b7100000000000000000000000000000000000000000000000000000000600052600160045260246000fd5b8183611cc49190612458565b905092915050565b828054611cd890612534565b90600052602060002090601f016020900481019282611cfa5760008555611d41565b82601f10611d1357805160ff1916838001178555611d41565b82800160010185558215611d41579182015b82811115611d40578251825591602001919060010190611d25565b5b509050611d4e9190611d52565b5090565b5b80821115611d6b576000816000905550600101611d53565b5090565b6000611d82611d7d84612341565b612310565b905082815260208101848484011115611d9a57600080fd5b611da58482856124f2565b509392505050565b600081359050611dbc8161274c565b92915050565b600081519050611dd181612763565b92915050565b600082601f830112611de857600080fd5b8135611df8848260208601611d6f565b91505092915050565b600081359050611e108161277a565b92915050565b600081519050611e258161277a565b92915050565b600060208284031215611e3d57600080fd5b6000611e4b84828501611dad565b91505092915050565b60008060408385031215611e6757600080fd5b6000611e7585828601611dad565b9250506020611e8685828601611e01565b9150509250929050565b6000806000806000806000806000806101408b8d031215611eb057600080fd5b6000611ebe8d828e01611dc2565b9a50506020611ecf8d828e01611dc2565b9950506040611ee08d828e01611e16565b9850506060611ef18d828e01611e16565b9750506080611f028d828e01611e16565b96505060a0611f138d828e01611e16565b95505060c0611f248d828e01611e16565b94505060e0611f358d828e01611e16565b935050610100611f478d828e01611e16565b925050610120611f598d828e01611e16565b9150509295989b9194979a5092959850565b600060208284031215611f7d57600080fd5b600082013567ffffffffffffffff811115611f9757600080fd5b611fa384828501611dd7565b91505092915050565b600060208284031215611fbe57600080fd5b6000611fcc84828501611e01565b91505092915050565b60008060408385031215611fe857600080fd5b6000611ff685828601611e01565b925050602083013567ffffffffffffffff81111561201357600080fd5b61201f85828601611dd7565b9150509250929050565b6000806040838503121561203c57600080fd5b600061204a85828601611e01565b925050602061205b85828601611e01565b9150509250929050565b6000612071838361217a565b60208301905092915050565b6120868161248c565b82525050565b61209d6120988261248c565b612607565b82525050565b60006120ae82612381565b6120b881856123a4565b93506120c383612371565b8060005b838110156120f45781516120db8882612065565b97506120e683612397565b9250506001810190506120c7565b5085935050505092915050565b600061210c8261238c565b61211681856123b5565b9350612126818560208601612501565b61212f81612722565b840191505092915050565b60006121458261238c565b61214f81856123c6565b935061215f818560208601612501565b80840191505092915050565b612174816124aa565b82525050565b612183816124d8565b82525050565b612192816124d8565b82525050565b6121a96121a4826124d8565b61262b565b82525050565b6121b8816124e2565b82525050565b60006121ca828461213a565b915081905092915050565b60006121e18286612198565b6020820191506121f1828561208c565b6014820191506122018284612198565b602082019150819050949350505050565b6000602082019050612227600083018461207d565b92915050565b6000602082019050818103600083015261224781846120a3565b905092915050565b600060c08201905081810360008301526122698189612101565b90506122786020830188612189565b61228560408301876121af565b61229260608301866121af565b61229f608083018561216b565b6122ac60a083018461216b565b979650505050505050565b60006020820190506122cc6000830184612189565b92915050565b60006060820190506122e76000830186612189565b81810360208301526122f98185612101565b90506123086040830184612189565b949350505050565b6000604051905081810181811067ffffffffffffffff82111715612337576123366126f3565b5b8060405250919050565b600067ffffffffffffffff82111561235c5761235b6126f3565b5b601f19601f8301169050602081019050919050565b6000819050602082019050919050565b600081519050919050565b600081519050919050565b6000602082019050919050565b600082825260208201905092915050565b600082825260208201905092915050565b600081905092915050565b60006123dc826124d8565b91506123e7836124d8565b9250827fffffffffffffffffffffffffffffffffffffffffffffffffffffffffffffffff0382111561241c5761241b612666565b5b828201905092915050565b6000612432826124d8565b915061243d836124d8565b92508261244d5761244c612695565b5b828204905092915050565b6000612463826124d8565b915061246e836124d8565b92508282101561248157612480612666565b5b828203905092915050565b6000612497826124b8565b9050919050565b60008115159050919050565b600061ffff82169050919050565b600073ffffffffffffffffffffffffffffffffffffffff82169050919050565b6000819050919050565b600063ffffffff82169050919050565b82818337600083830152505050565b60005b8381101561251f578082015181840152602081019050612504565b8381111561252e576000848401525b50505050565b6000600282049050600182168061254c57607f821691505b602082108114156125605761255f6126c4565b5b50919050565b6000612571826124aa565b915061ffff82141561258657612585612666565b5b600182019050919050565b600061259c826124d8565b91507fffffffffffffffffffffffffffffffffffffffffffffffffffffffffffffffff8214156125cf576125ce612666565b5b600182019050919050565b60006125e5826124e2565b915063ffffffff8214156125fc576125fb612666565b5b600182019050919050565b600061261282612619565b9050919050565b600061262482612733565b9050919050565b6000819050919050565b6000612640826124d8565b915061264b836124d8565b92508261265b5761265a612695565b5b828206905092915050565b7f4e487b7100000000000000000000000000000000000000000000000000000000600052601160045260246000fd5b7f4e487b7100000000000000000000000000000000000000000000000000000000600052601260045260246000fd5b7f4e487b7100000000000000000000000000000000000000000000000000000000600052602260045260246000fd5b7f4e487b7100000000000000000000000000000000000000000000000000000000600052604160045260246000fd5b6000601f19601f8301169050919050565b60006c0100000000000000000000000082029050919050565b6127558161248c565b811461276057600080fd5b50565b61276c8161249e565b811461277757600080fd5b50565b612783816124d8565b811461278e57600080fd5b5056fea26469706673582212203320e7938737bd8829f5d1e49f0b36226b81b2d2b0051f2eac538c95b478b7ea64736f6c63430008000033",
  "immutableReferences": {},
  "source": "// SPDX-License-Identifier: MIT\r\npragma solidity ^0.8.0;\r\n\r\nimport \"./zombieattack.sol\";\r\nimport \"./erc721.sol\";\r\nimport \"./safemath.sol\";\r\n\r\ncontract ZombieOwnership is ZombieAttack, ERC721 {\r\n\r\n  using SafeMath for uint256;\r\n\r\n  mapping (uint => address) zombieApprovals;\r\n\r\n  function balanceOf(address _owner) public override view returns (uint256 _balance) {\r\n    return ownerZombieCount[_owner];\r\n  }\r\n\r\n  function ownerOf(uint256 _tokenId) public override view returns (address _owner) {\r\n    return zombieToOwner[_tokenId];\r\n  }\r\n\r\n  function _transfer(address _from, address _to, uint256 _tokenId) private {\r\n    ownerZombieCount[_to] = ownerZombieCount[_to].add(1);\r\n    ownerZombieCount[msg.sender] = ownerZombieCount[msg.sender].sub(1);\r\n    zombieToOwner[_tokenId] = _to;\r\n    emit Transfer(_from, _to, _tokenId);\r\n  }\r\n\r\n  function transfer(address _to, uint256 _tokenId) public override onlyOwnerOf(_tokenId) {\r\n    _transfer(msg.sender, _to, _tokenId);\r\n  }\r\n\r\n  function approve(address _to, uint256 _tokenId) public override onlyOwnerOf(_tokenId) {\r\n    zombieApprovals[_tokenId] = _to;\r\n    emit Approval(msg.sender, _to, _tokenId);\r\n  }\r\n\r\n  function takeOwnership(uint256 _tokenId) public override{\r\n    require(zombieApprovals[_tokenId] == msg.sender);\r\n    address owner = ownerOf(_tokenId);\r\n    _transfer(owner, msg.sender, _tokenId);\r\n  }\r\n}\r\n",
  "sourcePath": "C:\\test\\0_Blockchain\\contracts\\zombieownership.sol",
  "compiler": {
    "name": "solc",
    "version": "0.8.0+commit.c7dfd78e.Emscripten.clang"
  },
  "schemaVersion": "3.4.10",
  "updatedAt": "2022-09-26T13:26:48.296Z",
  "devdoc": {
    "kind": "dev",
    "methods": {
      "_Ownable()": {
        "details": "The Ownable constructor sets the original `owner` of the contract to the sender account."
      },
      "transferOwnership(address)": {
        "details": "Allows the current owner to transfer control of the contract to a newOwner.",
        "params": {
          "newOwner": "The address to transfer ownership to."
        }
      }
    },
    "version": 1
  },
  "userdoc": {
    "kind": "user",
    "methods": {},
    "version": 1
  }
}