{
  "contractName": "ZombieAttack",
  "abi": [
    {
      "anonymous": false,
      "inputs": [
        {
          "indexed": false,
          "internalType": "uint256",
          "name": "zombieId",
          "type": "uint256"
        },
        {
          "indexed": false,
          "internalType": "string",
          "name": "name",
          "type": "string"
        },
        {
          "indexed": false,
          "internalType": "uint256",
          "name": "dna",
          "type": "uint256"
        }
      ],
      "name": "NewZombie",
      "type": "event"
    },
    {
      "anonymous": false,
      "inputs": [
        {
          "indexed": true,
          "internalType": "address",
          "name": "previousOwner",
          "type": "address"
        },
        {
          "indexed": true,
          "internalType": "address",
          "name": "newOwner",
          "type": "address"
        }
      ],
      "name": "OwnershipTransferred",
      "type": "event"
    },
    {
      "inputs": [],
      "name": "_Ownable",
      "outputs": [],
      "stateMutability": "nonpayable",
      "type": "function"
    },
    {
      "inputs": [
        {
          "internalType": "uint256",
          "name": "_zombieId",
          "type": "uint256"
        },
        {
          "internalType": "uint256",
          "name": "_newDna",
          "type": "uint256"
        }
      ],
      "name": "changeDna",
      "outputs": [],
      "stateMutability": "nonpayable",
      "type": "function"
    },
    {
      "inputs": [
        {
          "internalType": "uint256",
          "name": "_zombieId",
          "type": "uint256"
        },
        {
          "internalType": "string",
          "name": "_newName",
          "type": "string"
        }
      ],
      "name": "changeName",
      "outputs": [],
      "stateMutability": "nonpayable",
      "type": "function"
    },
    {
      "inputs": [
        {
          "internalType": "string",
          "name": "_name",
          "type": "string"
        }
      ],
      "name": "createRandomZombie",
      "outputs": [],
      "stateMutability": "nonpayable",
      "type": "function"
    },
    {
      "inputs": [
        {
          "internalType": "uint256",
          "name": "_zombieId",
          "type": "uint256"
        },
        {
          "internalType": "uint256",
          "name": "_kittyId",
          "type": "uint256"
        }
      ],
      "name": "feedOnKitty",
      "outputs": [],
      "stateMutability": "nonpayable",
      "type": "function"
    },
    {
      "inputs": [
        {
          "internalType": "address",
          "name": "_owner",
          "type": "address"
        }
      ],
      "name": "getZombiesByOwner",
      "outputs": [
        {
          "internalType": "uint256[]",
          "name": "",
          "type": "uint256[]"
        }
      ],
      "stateMutability": "view",
      "type": "function"
    },
    {
      "inputs": [
        {
          "internalType": "uint256",
          "name": "_zombieId",
          "type": "uint256"
        }
      ],
      "name": "levelUp",
      "outputs": [],
      "stateMutability": "payable",
      "type": "function"
    },
    {
      "inputs": [],
      "name": "owner",
      "outputs": [
        {
          "internalType": "address",
          "name": "",
          "type": "address"
        }
      ],
      "stateMutability": "view",
      "type": "function"
    },
    {
      "inputs": [
        {
          "internalType": "address",
          "name": "_address",
          "type": "address"
        }
      ],
      "name": "setKittyContractAddress",
      "outputs": [],
      "stateMutability": "nonpayable",
      "type": "function"
    },
    {
      "inputs": [
        {
          "internalType": "uint256",
          "name": "_fee",
          "type": "uint256"
        }
      ],
      "name": "setLevelUpFee",
      "outputs": [],
      "stateMutability": "nonpayable",
      "type": "function"
    },
    {
      "inputs": [
        {
          "internalType": "address",
          "name": "newOwner",
          "type": "address"
        }
      ],
      "name": "transferOwnership",
      "outputs": [],
      "stateMutability": "nonpayable",
      "type": "function"
    },
    {
      "inputs": [
        {
          "internalType": "uint256",
          "name": "balance",
          "type": "uint256"
        }
      ],
      "name": "withdraw",
      "outputs": [],
      "stateMutability": "nonpayable",
      "type": "function"
    },
    {
      "inputs": [
        {
          "internalType": "uint256",
          "name": "",
          "type": "uint256"
        }
      ],
      "name": "zombieToOwner",
      "outputs": [
        {
          "internalType": "address",
          "name": "",
          "type": "address"
        }
      ],
      "stateMutability": "view",
      "type": "function"
    },
    {
      "inputs": [
        {
          "internalType": "uint256",
          "name": "",
          "type": "uint256"
        }
      ],
      "name": "zombies",
      "outputs": [
        {
          "internalType": "string",
          "name": "name",
          "type": "string"
        },
        {
          "internalType": "uint256",
          "name": "dna",
          "type": "uint256"
        },
        {
          "internalType": "uint32",
          "name": "level",
          "type": "uint32"
        },
        {
          "internalType": "uint32",
          "name": "readyTime",
          "type": "uint32"
        },
        {
          "internalType": "uint16",
          "name": "winCount",
          "type": "uint16"
        },
        {
          "internalType": "uint16",
          "name": "lossCount",
          "type": "uint16"
        }
      ],
      "stateMutability": "view",
      "type": "function"
    },
    {
      "inputs": [
        {
          "internalType": "uint256",
          "name": "_zombieId",
          "type": "uint256"
        },
        {
          "internalType": "uint256",
          "name": "_targetId",
          "type": "uint256"
        }
      ],
      "name": "attack",
      "outputs": [],
      "stateMutability": "nonpayable",
      "type": "function"
    }
  ],
  "bytecode": "0x60806040526010600155600154600a6200001a9190620000a8565b6002556201518060035566038d7ea4c6800060085560006009556046600a553480156200004657600080fd5b506200022b565b6000808291508390505b60018511156200009f57808604811115620000775762000076620001ef565b5b6001851615620000875780820291505b808102905062000097856200021e565b945062000057565b94509492505050565b6000620000b582620001e5565b9150620000c283620001e5565b9250620000f17fffffffffffffffffffffffffffffffffffffffffffffffffffffffffffffffff8484620000f9565b905092915050565b6000826200010b5760019050620001de565b816200011b5760009050620001de565b81600181146200013457600281146200013f5762000175565b6001915050620001de565b60ff841115620001545762000153620001ef565b5b8360020a9150848211156200016e576200016d620001ef565b5b50620001de565b5060208310610133831016604e8410600b8410161715620001af5782820a905083811115620001a957620001a8620001ef565b5b620001de565b620001be84848460016200004d565b92509050818404811115620001d857620001d7620001ef565b5b81810290505b9392505050565b6000819050919050565b7f4e487b7100000000000000000000000000000000000000000000000000000000600052601160045260246000fd5b6000600282049050919050565b612127806200023b6000396000f3fe608060405260043610610105576000357c0100000000000000000000000000000000000000000000000000000000900480635faf2880116100a7578063c39cbef111610076578063c39cbef1146102f1578063ccf670f81461031a578063e1fa763814610343578063f2fde38b1461036c57610105565b80635faf28801461025d5780637bff0a01146102865780638da5cb5b146102af578063a78d85ae146102da57610105565b80632e1a7d4d116100e35780632e1a7d4d146101915780634412e104146101ba578063528b7b8f146101f75780635f4623f11461023457610105565b80630ce90ec21461010a57806317a7f4cc146101265780632052465e1461014f575b600080fd5b610124600480360381019061011f919061190c565b610395565b005b34801561013257600080fd5b5061014d60048036038101906101489190611989565b610430565b005b34801561015b57600080fd5b506101766004803603810190610171919061190c565b610579565b60405161018896959493929190611baf565b60405180910390f35b34801561019d57600080fd5b506101b860048036038101906101b3919061190c565b610689565b005b3480156101c657600080fd5b506101e160048036038101906101dc91906117c7565b61074b565b6040516101ee9190611b8d565b60405180910390f35b34801561020357600080fd5b5061021e6004803603810190610219919061190c565b6108ea565b60405161022b9190611b72565b60405180910390f35b34801561024057600080fd5b5061025b600480360381019061025691906117c7565b61091d565b005b34801561026957600080fd5b50610284600480360381019061027f9190611989565b6109b9565b005b34801561029257600080fd5b506102ad60048036038101906102a891906118cb565b610aed565b005b3480156102bb57600080fd5b506102c4610b6e565b6040516102d19190611b72565b60405180910390f35b3480156102e657600080fd5b506102ef610b92565b005b3480156102fd57600080fd5b5061031860048036038101906103139190611935565b610bd4565b005b34801561032657600080fd5b50610341600480360381019061033c919061190c565b610d18565b005b34801561034f57600080fd5b5061036a60048036038101906103659190611989565b610d7a565b005b34801561037857600080fd5b50610393600480360381019061038e91906117c7565b611027565b005b60085434146103a357600080fd5b600481815481106103dd577f4e487b7100000000000000000000000000000000000000000000000000000000600052603260045260246000fd5b9060005260206000209060030201600201600081819054906101000a900463ffffffff168092919061040e90611f3a565b91906101000a81548163ffffffff021916908363ffffffff1602179055505050565b6000600760009054906101000a900473ffffffffffffffffffffffffffffffffffffffff1673ffffffffffffffffffffffffffffffffffffffff1663e98b7f4d836040518263ffffffff167c01000000000000000000000000000000000000000000000000000000000281526004016104a99190611c17565b6101406040518083038186803b1580156104c257600080fd5b505afa1580156104d6573d6000803e3d6000fd5b505050506040513d601f19601f820116820180604052508101906104fa91906117f0565b9091929394959697985090919293949596975090919293949596509091929394955090919293945090919293509091925090915090508091505061057483826040518060400160405280600581526020017f6b69747479000000000000000000000000000000000000000000000000000000815250611176565b505050565b6004818154811061058957600080fd5b90600052602060002090600302016000915090508060000180546105ac90611e94565b80601f01602080910402602001604051908101604052809291908181526020018280546105d890611e94565b80156106255780601f106105fa57610100808354040283529160200191610625565b820191906000526020600020905b81548152906001019060200180831161060857829003601f168201915b5050505050908060010154908060020160009054906101000a900463ffffffff16908060020160049054906101000a900463ffffffff16908060020160089054906101000a900461ffff169080600201600a9054906101000a900461ffff16905086565b60008054906101000a900473ffffffffffffffffffffffffffffffffffffffff1673ffffffffffffffffffffffffffffffffffffffff163373ffffffffffffffffffffffffffffffffffffffff16146106e157600080fd5b60008054906101000a900473ffffffffffffffffffffffffffffffffffffffff1673ffffffffffffffffffffffffffffffffffffffff166108fc829081150290604051600060405180830381858888f19350505050158015610747573d6000803e3d6000fd5b5050565b60606000600660008473ffffffffffffffffffffffffffffffffffffffff1673ffffffffffffffffffffffffffffffffffffffff1681526020019081526020016000205467ffffffffffffffff8111156107ce577f4e487b7100000000000000000000000000000000000000000000000000000000600052604160045260246000fd5b6040519080825280602002602001820160405280156107fc5781602001602082028036833780820191505090505b5090506000805b6004805490508110156108df578473ffffffffffffffffffffffffffffffffffffffff166005600083815260200190815260200160002060009054906101000a900473ffffffffffffffffffffffffffffffffffffffff1673ffffffffffffffffffffffffffffffffffffffff1614156108cc57808383815181106108b1577f4e487b7100000000000000000000000000000000000000000000000000000000600052603260045260246000fd5b60200260200101818152505081806108c890611ef1565b9250505b80806108d790611ef1565b915050610803565b508192505050919050565b60056020528060005260406000206000915054906101000a900473ffffffffffffffffffffffffffffffffffffffff1681565b60008054906101000a900473ffffffffffffffffffffffffffffffffffffffff1673ffffffffffffffffffffffffffffffffffffffff163373ffffffffffffffffffffffffffffffffffffffff161461097557600080fd5b80600760006101000a81548173ffffffffffffffffffffffffffffffffffffffff021916908373ffffffffffffffffffffffffffffffffffffffff16021790555050565b60148281600482815481106109f7577f4e487b7100000000000000000000000000000000000000000000000000000000600052603260045260246000fd5b906000526020600020906003020160020160009054906101000a900463ffffffff1663ffffffff161015610a2a57600080fd5b836005600082815260200190815260200160002060009054906101000a900473ffffffffffffffffffffffffffffffffffffffff1673ffffffffffffffffffffffffffffffffffffffff163373ffffffffffffffffffffffffffffffffffffffff1614610a9657600080fd5b8360048681548110610ad1577f4e487b7100000000000000000000000000000000000000000000000000000000600052603260045260246000fd5b9060005260206000209060030201600101819055505050505050565b6000600660003373ffffffffffffffffffffffffffffffffffffffff1673ffffffffffffffffffffffffffffffffffffffff1681526020019081526020016000205414610b3957600080fd5b6000610b4482611335565b9050606481610b539190611f95565b81610b5e9190611db8565b9050610b6a828261137b565b5050565b60008054906101000a900473ffffffffffffffffffffffffffffffffffffffff1681565b336000806101000a81548173ffffffffffffffffffffffffffffffffffffffff021916908373ffffffffffffffffffffffffffffffffffffffff160217905550565b6002828160048281548110610c12577f4e487b7100000000000000000000000000000000000000000000000000000000600052603260045260246000fd5b906000526020600020906003020160020160009054906101000a900463ffffffff1663ffffffff161015610c4557600080fd5b836005600082815260200190815260200160002060009054906101000a900473ffffffffffffffffffffffffffffffffffffffff1673ffffffffffffffffffffffffffffffffffffffff163373ffffffffffffffffffffffffffffffffffffffff1614610cb157600080fd5b8360048681548110610cec577f4e487b7100000000000000000000000000000000000000000000000000000000600052603260045260246000fd5b90600052602060002090600302016000019080519060200190610d10929190611668565b505050505050565b60008054906101000a900473ffffffffffffffffffffffffffffffffffffffff1673ffffffffffffffffffffffffffffffffffffffff163373ffffffffffffffffffffffffffffffffffffffff1614610d7057600080fd5b8060088190555050565b816005600082815260200190815260200160002060009054906101000a900473ffffffffffffffffffffffffffffffffffffffff1673ffffffffffffffffffffffffffffffffffffffff163373ffffffffffffffffffffffffffffffffffffffff1614610de657600080fd5b600060048481548110610e22577f4e487b7100000000000000000000000000000000000000000000000000000000600052603260045260246000fd5b90600052602060002090600302019050600060048481548110610e6e577f4e487b7100000000000000000000000000000000000000000000000000000000600052603260045260246000fd5b906000526020600020906003020190506000610e8a60646115b1565b9050600a548111610f9b5782600201600881819054906101000a900461ffff1680929190610eb790611ec6565b91906101000a81548161ffff021916908361ffff1602179055505082600201600081819054906101000a900463ffffffff1680929190610ef690611f3a565b91906101000a81548163ffffffff021916908363ffffffff1602179055505081600201600a81819054906101000a900461ffff1680929190610f3790611ec6565b91906101000a81548161ffff021916908361ffff16021790555050610f968683600101546040518060400160405280600681526020017f7a6f6d6269650000000000000000000000000000000000000000000000000000815250611176565b61101f565b82600201600a81819054906101000a900461ffff1680929190610fbd90611ec6565b91906101000a81548161ffff021916908361ffff1602179055505081600201600881819054906101000a900461ffff1680929190610ffa90611ec6565b91906101000a81548161ffff021916908361ffff1602179055505061101e8361160e565b5b505050505050565b60008054906101000a900473ffffffffffffffffffffffffffffffffffffffff1673ffffffffffffffffffffffffffffffffffffffff163373ffffffffffffffffffffffffffffffffffffffff161461107f57600080fd5b600073ffffffffffffffffffffffffffffffffffffffff168173ffffffffffffffffffffffffffffffffffffffff1614156110b957600080fd5b8073ffffffffffffffffffffffffffffffffffffffff1660008054906101000a900473ffffffffffffffffffffffffffffffffffffffff1673ffffffffffffffffffffffffffffffffffffffff167f8be0079c531659141344cd1fd0a4f28419497f9722a3daafe3b4186f6b6457e060405160405180910390a3806000806101000a81548173ffffffffffffffffffffffffffffffffffffffff021916908373ffffffffffffffffffffffffffffffffffffffff16021790555050565b826005600082815260200190815260200160002060009054906101000a900473ffffffffffffffffffffffffffffffffffffffff1673ffffffffffffffffffffffffffffffffffffffff163373ffffffffffffffffffffffffffffffffffffffff16146111e257600080fd5b60006004858154811061121e577f4e487b7100000000000000000000000000000000000000000000000000000000600052603260045260246000fd5b9060005260206000209060030201905061123781611641565b61124057600080fd5b6002548461124e9190611f95565b9350600060028583600101546112649190611d31565b61126e9190611d87565b90507f8d53323b21b9f304546f6d3e61cde865451064d614aa4912f395b755a9d8cad9846040516020016112a29190611b1e565b6040516020818303038152906040528051906020012014156112e55760636064826112cd9190611f95565b826112d89190611db8565b6112e29190611d31565b90505b6113246040518060400160405280600681526020017f4e6f4e616d6500000000000000000000000000000000000000000000000000008152508261137b565b61132d8261160e565b505050505050565b600080826040516020016113499190611b1e565b60405160208183030381529060405280519060200120600190049050600254816113739190611f95565b915050919050565b60046040518060c00160405280848152602001838152602001600163ffffffff168152602001600354426113af9190611d31565b63ffffffff168152602001600061ffff168152602001600061ffff1681525090806001815401808255809150506001900390600052602060002090600302016000909190919091506000820151816000019080519060200190611413929190611668565b506020820151816001015560408201518160020160006101000a81548163ffffffff021916908363ffffffff16021790555060608201518160020160046101000a81548163ffffffff021916908363ffffffff16021790555060808201518160020160086101000a81548161ffff021916908361ffff16021790555060a082015181600201600a6101000a81548161ffff021916908361ffff1602179055505050600060016004805490506114c89190611db8565b9050336005600083815260200190815260200160002060006101000a81548173ffffffffffffffffffffffffffffffffffffffff021916908373ffffffffffffffffffffffffffffffffffffffff160217905550600660003373ffffffffffffffffffffffffffffffffffffffff1673ffffffffffffffffffffffffffffffffffffffff168152602001908152602001600020600081548092919061156c90611ef1565b91905055507f88f026aacbbecc90c18411df4b1185fd8d9be2470f1962f192bf84a27d0704b78184846040516115a493929190611c32565b60405180910390a1505050565b6000600960008154809291906115c690611ef1565b91905055508142336009546040516020016115e393929190611b35565b60405160208183030381529060405280519060200120600190046116079190611f95565b9050919050565b6003544261161c9190611d31565b8160020160046101000a81548163ffffffff021916908363ffffffff16021790555050565b6000428260020160049054906101000a900463ffffffff1663ffffffff1611159050919050565b82805461167490611e94565b90600052602060002090601f01602090048101928261169657600085556116dd565b82601f106116af57805160ff19168380011785556116dd565b828001600101855582156116dd579182015b828111156116dc5782518255916020019190600101906116c1565b5b5090506116ea91906116ee565b5090565b5b808211156117075760008160009055506001016116ef565b5090565b600061171e61171984611ca1565b611c70565b90508281526020810184848401111561173657600080fd5b611741848285611e52565b509392505050565b600081359050611758816120ac565b92915050565b60008151905061176d816120c3565b92915050565b600082601f83011261178457600080fd5b813561179484826020860161170b565b91505092915050565b6000813590506117ac816120da565b92915050565b6000815190506117c1816120da565b92915050565b6000602082840312156117d957600080fd5b60006117e784828501611749565b91505092915050565b6000806000806000806000806000806101408b8d03121561181057600080fd5b600061181e8d828e0161175e565b9a5050602061182f8d828e0161175e565b99505060406118408d828e016117b2565b98505060606118518d828e016117b2565b97505060806118628d828e016117b2565b96505060a06118738d828e016117b2565b95505060c06118848d828e016117b2565b94505060e06118958d828e016117b2565b9350506101006118a78d828e016117b2565b9250506101206118b98d828e016117b2565b9150509295989b9194979a5092959850565b6000602082840312156118dd57600080fd5b600082013567ffffffffffffffff8111156118f757600080fd5b61190384828501611773565b91505092915050565b60006020828403121561191e57600080fd5b600061192c8482850161179d565b91505092915050565b6000806040838503121561194857600080fd5b60006119568582860161179d565b925050602083013567ffffffffffffffff81111561197357600080fd5b61197f85828601611773565b9150509250929050565b6000806040838503121561199c57600080fd5b60006119aa8582860161179d565b92505060206119bb8582860161179d565b9150509250929050565b60006119d18383611ada565b60208301905092915050565b6119e681611dec565b82525050565b6119fd6119f882611dec565b611f67565b82525050565b6000611a0e82611ce1565b611a188185611d04565b9350611a2383611cd1565b8060005b83811015611a54578151611a3b88826119c5565b9750611a4683611cf7565b925050600181019050611a27565b5085935050505092915050565b6000611a6c82611cec565b611a768185611d15565b9350611a86818560208601611e61565b611a8f81612082565b840191505092915050565b6000611aa582611cec565b611aaf8185611d26565b9350611abf818560208601611e61565b80840191505092915050565b611ad481611e0a565b82525050565b611ae381611e38565b82525050565b611af281611e38565b82525050565b611b09611b0482611e38565b611f8b565b82525050565b611b1881611e42565b82525050565b6000611b2a8284611a9a565b915081905092915050565b6000611b418286611af8565b602082019150611b5182856119ec565b601482019150611b618284611af8565b602082019150819050949350505050565b6000602082019050611b8760008301846119dd565b92915050565b60006020820190508181036000830152611ba78184611a03565b905092915050565b600060c0820190508181036000830152611bc98189611a61565b9050611bd86020830188611ae9565b611be56040830187611b0f565b611bf26060830186611b0f565b611bff6080830185611acb565b611c0c60a0830184611acb565b979650505050505050565b6000602082019050611c2c6000830184611ae9565b92915050565b6000606082019050611c476000830186611ae9565b8181036020830152611c598185611a61565b9050611c686040830184611ae9565b949350505050565b6000604051905081810181811067ffffffffffffffff82111715611c9757611c96612053565b5b8060405250919050565b600067ffffffffffffffff821115611cbc57611cbb612053565b5b601f19601f8301169050602081019050919050565b6000819050602082019050919050565b600081519050919050565b600081519050919050565b6000602082019050919050565b600082825260208201905092915050565b600082825260208201905092915050565b600081905092915050565b6000611d3c82611e38565b9150611d4783611e38565b9250827fffffffffffffffffffffffffffffffffffffffffffffffffffffffffffffffff03821115611d7c57611d7b611fc6565b5b828201905092915050565b6000611d9282611e38565b9150611d9d83611e38565b925082611dad57611dac611ff5565b5b828204905092915050565b6000611dc382611e38565b9150611dce83611e38565b925082821015611de157611de0611fc6565b5b828203905092915050565b6000611df782611e18565b9050919050565b60008115159050919050565b600061ffff82169050919050565b600073ffffffffffffffffffffffffffffffffffffffff82169050919050565b6000819050919050565b600063ffffffff82169050919050565b82818337600083830152505050565b60005b83811015611e7f578082015181840152602081019050611e64565b83811115611e8e576000848401525b50505050565b60006002820490506001821680611eac57607f821691505b60208210811415611ec057611ebf612024565b5b50919050565b6000611ed182611e0a565b915061ffff821415611ee657611ee5611fc6565b5b600182019050919050565b6000611efc82611e38565b91507fffffffffffffffffffffffffffffffffffffffffffffffffffffffffffffffff821415611f2f57611f2e611fc6565b5b600182019050919050565b6000611f4582611e42565b915063ffffffff821415611f5c57611f5b611fc6565b5b600182019050919050565b6000611f7282611f79565b9050919050565b6000611f8482612093565b9050919050565b6000819050919050565b6000611fa082611e38565b9150611fab83611e38565b925082611fbb57611fba611ff5565b5b828206905092915050565b7f4e487b7100000000000000000000000000000000000000000000000000000000600052601160045260246000fd5b7f4e487b7100000000000000000000000000000000000000000000000000000000600052601260045260246000fd5b7f4e487b7100000000000000000000000000000000000000000000000000000000600052602260045260246000fd5b7f4e487b7100000000000000000000000000000000000000000000000000000000600052604160045260246000fd5b6000601f19601f8301169050919050565b60006c0100000000000000000000000082029050919050565b6120b581611dec565b81146120c057600080fd5b50565b6120cc81611dfe565b81146120d757600080fd5b50565b6120e381611e38565b81146120ee57600080fd5b5056fea2646970667358221220e726e94f54d7b5e267692f730077f8acfd6d0da3d0f58e667cf6db773d34b60c64736f6c63430008000033",
  "immutableReferences": {},
  "source": "// SPDX-License-Identifier: MIT\r\npragma solidity ^0.8.0;\r\n\r\nimport \"./zombiehelper.sol\";\r\n\r\ncontract ZombieAttack is ZombieHelper {\r\n  uint randNonce = 0;\r\n  uint attackVictoryProbability = 70;\r\n\r\n  function randMod(uint _modulus) internal returns(uint) {\r\n    randNonce++;\r\n    return uint(keccak256(abi.encodePacked(block.timestamp, msg.sender, randNonce))) % _modulus;\r\n  }\r\n\r\n  function attack(uint _zombieId, uint _targetId) external onlyOwnerOf(_zombieId) {\r\n    Zombie storage myZombie = zombies[_zombieId];\r\n    Zombie storage enemyZombie = zombies[_targetId];\r\n    uint rand = randMod(100);\r\n    if (rand <= attackVictoryProbability) {\r\n      myZombie.winCount++;\r\n      myZombie.level++;\r\n      enemyZombie.lossCount++;\r\n      feedAndMultiply(_zombieId, enemyZombie.dna, \"zombie\");\r\n    } else {\r\n      myZombie.lossCount++;\r\n      enemyZombie.winCount++;\r\n      _triggerCooldown(myZombie);\r\n    }\r\n  }\r\n}\r\n",
  "sourcePath": "C:\\test\\0_Blockchain\\contracts\\zombieattack.sol",
  "compiler": {
    "name": "solc",
    "version": "0.8.0+commit.c7dfd78e.Emscripten.clang"
  },
  "schemaVersion": "3.4.10",
  "updatedAt": "2022-09-26T13:26:48.236Z",
  "devdoc": {
    "kind": "dev",
    "methods": {
      "_Ownable()": {
        "details": "The Ownable constructor sets the original `owner` of the contract to the sender account."
      },
      "transferOwnership(address)": {
        "details": "Allows the current owner to transfer control of the contract to a newOwner.",
        "params": {
          "newOwner": "The address to transfer ownership to."
        }
      }
    },
    "version": 1
  },
  "userdoc": {
    "kind": "user",
    "methods": {},
    "version": 1
  }
}