{
  "contractName": "ZombieFeeding",
  "abi": [
    {
      "anonymous": false,
      "inputs": [
        {
          "indexed": false,
          "internalType": "uint256",
          "name": "zombieId",
          "type": "uint256"
        },
        {
          "indexed": false,
          "internalType": "string",
          "name": "name",
          "type": "string"
        },
        {
          "indexed": false,
          "internalType": "uint256",
          "name": "dna",
          "type": "uint256"
        }
      ],
      "name": "NewZombie",
      "type": "event"
    },
    {
      "anonymous": false,
      "inputs": [
        {
          "indexed": true,
          "internalType": "address",
          "name": "previousOwner",
          "type": "address"
        },
        {
          "indexed": true,
          "internalType": "address",
          "name": "newOwner",
          "type": "address"
        }
      ],
      "name": "OwnershipTransferred",
      "type": "event"
    },
    {
      "inputs": [],
      "name": "_Ownable",
      "outputs": [],
      "stateMutability": "nonpayable",
      "type": "function"
    },
    {
      "inputs": [
        {
          "internalType": "string",
          "name": "_name",
          "type": "string"
        }
      ],
      "name": "createRandomZombie",
      "outputs": [],
      "stateMutability": "nonpayable",
      "type": "function"
    },
    {
      "inputs": [],
      "name": "owner",
      "outputs": [
        {
          "internalType": "address",
          "name": "",
          "type": "address"
        }
      ],
      "stateMutability": "view",
      "type": "function"
    },
    {
      "inputs": [
        {
          "internalType": "address",
          "name": "newOwner",
          "type": "address"
        }
      ],
      "name": "transferOwnership",
      "outputs": [],
      "stateMutability": "nonpayable",
      "type": "function"
    },
    {
      "inputs": [
        {
          "internalType": "uint256",
          "name": "",
          "type": "uint256"
        }
      ],
      "name": "zombieToOwner",
      "outputs": [
        {
          "internalType": "address",
          "name": "",
          "type": "address"
        }
      ],
      "stateMutability": "view",
      "type": "function"
    },
    {
      "inputs": [
        {
          "internalType": "uint256",
          "name": "",
          "type": "uint256"
        }
      ],
      "name": "zombies",
      "outputs": [
        {
          "internalType": "string",
          "name": "name",
          "type": "string"
        },
        {
          "internalType": "uint256",
          "name": "dna",
          "type": "uint256"
        },
        {
          "internalType": "uint32",
          "name": "level",
          "type": "uint32"
        },
        {
          "internalType": "uint32",
          "name": "readyTime",
          "type": "uint32"
        },
        {
          "internalType": "uint16",
          "name": "winCount",
          "type": "uint16"
        },
        {
          "internalType": "uint16",
          "name": "lossCount",
          "type": "uint16"
        }
      ],
      "stateMutability": "view",
      "type": "function"
    },
    {
      "inputs": [
        {
          "internalType": "address",
          "name": "_address",
          "type": "address"
        }
      ],
      "name": "setKittyContractAddress",
      "outputs": [],
      "stateMutability": "nonpayable",
      "type": "function"
    },
    {
      "inputs": [
        {
          "internalType": "uint256",
          "name": "_zombieId",
          "type": "uint256"
        },
        {
          "internalType": "uint256",
          "name": "_kittyId",
          "type": "uint256"
        }
      ],
      "name": "feedOnKitty",
      "outputs": [],
      "stateMutability": "nonpayable",
      "type": "function"
    }
  ],
  "bytecode": "0x60806040526010600155600154600a6200001a919062000093565b600255620151806003553480156200003157600080fd5b5062000216565b6000808291508390505b60018511156200008a57808604811115620000625762000061620001da565b5b6001851615620000725780820291505b8081029050620000828562000209565b945062000042565b94509492505050565b6000620000a082620001d0565b9150620000ad83620001d0565b9250620000dc7fffffffffffffffffffffffffffffffffffffffffffffffffffffffffffffffff8484620000e4565b905092915050565b600082620000f65760019050620001c9565b81620001065760009050620001c9565b81600181146200011f57600281146200012a5762000160565b6001915050620001c9565b60ff8411156200013f576200013e620001da565b5b8360020a915084821115620001595762000158620001da565b5b50620001c9565b5060208310610133831016604e8410600b84101617156200019a5782820a905083811115620001945762000193620001da565b5b620001c9565b620001a9848484600162000038565b92509050818404811115620001c357620001c2620001da565b5b81810290505b9392505050565b6000819050919050565b7f4e487b7100000000000000000000000000000000000000000000000000000000600052601160045260246000fd5b6000600282049050919050565b61141b80620002266000396000f3fe608060405234801561001057600080fd5b50600436106100a5576000357c0100000000000000000000000000000000000000000000000000000000900480637bff0a01116100785780637bff0a01146101475780638da5cb5b14610163578063a78d85ae14610181578063f2fde38b1461018b576100a5565b806317a7f4cc146100aa5780632052465e146100c6578063528b7b8f146100fb5780635f4623f11461012b575b600080fd5b6100c460048036038101906100bf9190610e67565b6101a7565b005b6100e060048036038101906100db9190610e3e565b6102f0565b6040516100f296959493929190610f7b565b60405180910390f35b61011560048036038101906101109190610e3e565b610400565b6040516101229190610f60565b60405180910390f35b61014560048036038101906101409190610cf9565b610433565b005b610161600480360381019061015c9190610dfd565b6104cf565b005b61016b610550565b6040516101789190610f60565b60405180910390f35b610189610574565b005b6101a560048036038101906101a09190610cf9565b6105b6565b005b6000600760009054906101000a900473ffffffffffffffffffffffffffffffffffffffff1673ffffffffffffffffffffffffffffffffffffffff1663e98b7f4d836040518263ffffffff167c01000000000000000000000000000000000000000000000000000000000281526004016102209190610fe3565b6101406040518083038186803b15801561023957600080fd5b505afa15801561024d573d6000803e3d6000fd5b505050506040513d601f19601f820116820180604052508101906102719190610d22565b909192939495969798509091929394959697509091929394959650909192939495509091929394509091929350909192509091509050809150506102eb83826040518060400160405280600581526020017f6b69747479000000000000000000000000000000000000000000000000000000815250610705565b505050565b6004818154811061030057600080fd5b906000526020600020906003020160009150905080600001805461032390611227565b80601f016020809104026020016040519081016040528092919081815260200182805461034f90611227565b801561039c5780601f106103715761010080835404028352916020019161039c565b820191906000526020600020905b81548152906001019060200180831161037f57829003601f168201915b5050505050908060010154908060020160009054906101000a900463ffffffff16908060020160049054906101000a900463ffffffff16908060020160089054906101000a900461ffff169080600201600a9054906101000a900461ffff16905086565b60056020528060005260406000206000915054906101000a900473ffffffffffffffffffffffffffffffffffffffff1681565b60008054906101000a900473ffffffffffffffffffffffffffffffffffffffff1673ffffffffffffffffffffffffffffffffffffffff163373ffffffffffffffffffffffffffffffffffffffff161461048b57600080fd5b80600760006101000a81548173ffffffffffffffffffffffffffffffffffffffff021916908373ffffffffffffffffffffffffffffffffffffffff16021790555050565b6000600660003373ffffffffffffffffffffffffffffffffffffffff1673ffffffffffffffffffffffffffffffffffffffff168152602001908152602001600020541461051b57600080fd5b6000610526826108c4565b905060648161053591906112a2565b81610540919061114b565b905061054c828261090a565b5050565b60008054906101000a900473ffffffffffffffffffffffffffffffffffffffff1681565b336000806101000a81548173ffffffffffffffffffffffffffffffffffffffff021916908373ffffffffffffffffffffffffffffffffffffffff160217905550565b60008054906101000a900473ffffffffffffffffffffffffffffffffffffffff1673ffffffffffffffffffffffffffffffffffffffff163373ffffffffffffffffffffffffffffffffffffffff161461060e57600080fd5b600073ffffffffffffffffffffffffffffffffffffffff168173ffffffffffffffffffffffffffffffffffffffff16141561064857600080fd5b8073ffffffffffffffffffffffffffffffffffffffff1660008054906101000a900473ffffffffffffffffffffffffffffffffffffffff1673ffffffffffffffffffffffffffffffffffffffff167f8be0079c531659141344cd1fd0a4f28419497f9722a3daafe3b4186f6b6457e060405160405180910390a3806000806101000a81548173ffffffffffffffffffffffffffffffffffffffff021916908373ffffffffffffffffffffffffffffffffffffffff16021790555050565b826005600082815260200190815260200160002060009054906101000a900473ffffffffffffffffffffffffffffffffffffffff1673ffffffffffffffffffffffffffffffffffffffff163373ffffffffffffffffffffffffffffffffffffffff161461077157600080fd5b6000600485815481106107ad577f4e487b7100000000000000000000000000000000000000000000000000000000600052603260045260246000fd5b906000526020600020906003020190506107c681610b40565b6107cf57600080fd5b600254846107dd91906112a2565b9350600060028583600101546107f391906110c4565b6107fd919061111a565b90507f8d53323b21b9f304546f6d3e61cde865451064d614aa4912f395b755a9d8cad9846040516020016108319190610f49565b60405160208183030381529060405280519060200120141561087457606360648261085c91906112a2565b82610867919061114b565b61087191906110c4565b90505b6108b36040518060400160405280600681526020017f4e6f4e616d6500000000000000000000000000000000000000000000000000008152508261090a565b6108bc82610b67565b505050505050565b600080826040516020016108d89190610f49565b604051602081830303815290604052805190602001206001900490506002548161090291906112a2565b915050919050565b60046040518060c00160405280848152602001838152602001600163ffffffff1681526020016003544261093e91906110c4565b63ffffffff168152602001600061ffff168152602001600061ffff16815250908060018154018082558091505060019003906000526020600020906003020160009091909190915060008201518160000190805190602001906109a2929190610b9a565b506020820151816001015560408201518160020160006101000a81548163ffffffff021916908363ffffffff16021790555060608201518160020160046101000a81548163ffffffff021916908363ffffffff16021790555060808201518160020160086101000a81548161ffff021916908361ffff16021790555060a082015181600201600a6101000a81548161ffff021916908361ffff160217905550505060006001600480549050610a57919061114b565b9050336005600083815260200190815260200160002060006101000a81548173ffffffffffffffffffffffffffffffffffffffff021916908373ffffffffffffffffffffffffffffffffffffffff160217905550600660003373ffffffffffffffffffffffffffffffffffffffff1673ffffffffffffffffffffffffffffffffffffffff1681526020019081526020016000206000815480929190610afb90611259565b91905055507f88f026aacbbecc90c18411df4b1185fd8d9be2470f1962f192bf84a27d0704b7818484604051610b3393929190610ffe565b60405180910390a1505050565b6000428260020160049054906101000a900463ffffffff1663ffffffff1611159050919050565b60035442610b7591906110c4565b8160020160046101000a81548163ffffffff021916908363ffffffff16021790555050565b828054610ba690611227565b90600052602060002090601f016020900481019282610bc85760008555610c0f565b82601f10610be157805160ff1916838001178555610c0f565b82800160010185558215610c0f579182015b82811115610c0e578251825591602001919060010190610bf3565b5b509050610c1c9190610c20565b5090565b5b80821115610c39576000816000905550600101610c21565b5090565b6000610c50610c4b8461106d565b61103c565b905082815260208101848484011115610c6857600080fd5b610c738482856111e5565b509392505050565b600081359050610c8a816113a0565b92915050565b600081519050610c9f816113b7565b92915050565b600082601f830112610cb657600080fd5b8135610cc6848260208601610c3d565b91505092915050565b600081359050610cde816113ce565b92915050565b600081519050610cf3816113ce565b92915050565b600060208284031215610d0b57600080fd5b6000610d1984828501610c7b565b91505092915050565b6000806000806000806000806000806101408b8d031215610d4257600080fd5b6000610d508d828e01610c90565b9a50506020610d618d828e01610c90565b9950506040610d728d828e01610ce4565b9850506060610d838d828e01610ce4565b9750506080610d948d828e01610ce4565b96505060a0610da58d828e01610ce4565b95505060c0610db68d828e01610ce4565b94505060e0610dc78d828e01610ce4565b935050610100610dd98d828e01610ce4565b925050610120610deb8d828e01610ce4565b9150509295989b9194979a5092959850565b600060208284031215610e0f57600080fd5b600082013567ffffffffffffffff811115610e2957600080fd5b610e3584828501610ca5565b91505092915050565b600060208284031215610e5057600080fd5b6000610e5e84828501610ccf565b91505092915050565b60008060408385031215610e7a57600080fd5b6000610e8885828601610ccf565b9250506020610e9985828601610ccf565b9150509250929050565b610eac8161117f565b82525050565b6000610ebd8261109d565b610ec781856110a8565b9350610ed78185602086016111f4565b610ee08161138f565b840191505092915050565b6000610ef68261109d565b610f0081856110b9565b9350610f108185602086016111f4565b80840191505092915050565b610f258161119d565b82525050565b610f34816111cb565b82525050565b610f43816111d5565b82525050565b6000610f558284610eeb565b915081905092915050565b6000602082019050610f756000830184610ea3565b92915050565b600060c0820190508181036000830152610f958189610eb2565b9050610fa46020830188610f2b565b610fb16040830187610f3a565b610fbe6060830186610f3a565b610fcb6080830185610f1c565b610fd860a0830184610f1c565b979650505050505050565b6000602082019050610ff86000830184610f2b565b92915050565b60006060820190506110136000830186610f2b565b81810360208301526110258185610eb2565b90506110346040830184610f2b565b949350505050565b6000604051905081810181811067ffffffffffffffff8211171561106357611062611360565b5b8060405250919050565b600067ffffffffffffffff82111561108857611087611360565b5b601f19601f8301169050602081019050919050565b600081519050919050565b600082825260208201905092915050565b600081905092915050565b60006110cf826111cb565b91506110da836111cb565b9250827fffffffffffffffffffffffffffffffffffffffffffffffffffffffffffffffff0382111561110f5761110e6112d3565b5b828201905092915050565b6000611125826111cb565b9150611130836111cb565b9250826111405761113f611302565b5b828204905092915050565b6000611156826111cb565b9150611161836111cb565b925082821015611174576111736112d3565b5b828203905092915050565b600061118a826111ab565b9050919050565b60008115159050919050565b600061ffff82169050919050565b600073ffffffffffffffffffffffffffffffffffffffff82169050919050565b6000819050919050565b600063ffffffff82169050919050565b82818337600083830152505050565b60005b838110156112125780820151818401526020810190506111f7565b83811115611221576000848401525b50505050565b6000600282049050600182168061123f57607f821691505b6020821081141561125357611252611331565b5b50919050565b6000611264826111cb565b91507fffffffffffffffffffffffffffffffffffffffffffffffffffffffffffffffff821415611297576112966112d3565b5b600182019050919050565b60006112ad826111cb565b91506112b8836111cb565b9250826112c8576112c7611302565b5b828206905092915050565b7f4e487b7100000000000000000000000000000000000000000000000000000000600052601160045260246000fd5b7f4e487b7100000000000000000000000000000000000000000000000000000000600052601260045260246000fd5b7f4e487b7100000000000000000000000000000000000000000000000000000000600052602260045260246000fd5b7f4e487b7100000000000000000000000000000000000000000000000000000000600052604160045260246000fd5b6000601f19601f8301169050919050565b6113a98161117f565b81146113b457600080fd5b50565b6113c081611191565b81146113cb57600080fd5b50565b6113d7816111cb565b81146113e257600080fd5b5056fea26469706673582212203871ba0b20afb553353ae5fab9413546c83156b4803545a284da1dcd74c0b16f64736f6c63430008000033",
  "immutableReferences": {},
  "source": "// SPDX-License-Identifier: MIT\r\npragma solidity ^0.8.0;\r\n\r\nimport \"./zombiefactory.sol\";\r\n\r\nabstract contract KittyInterface {\r\n  function getKitty(uint256 _id) external view virtual returns (\r\n    bool isGestating,\r\n    bool isReady,\r\n    uint256 cooldownIndex,\r\n    uint256 nextActionAt,\r\n    uint256 siringWithId,\r\n    uint256 birthTime,\r\n    uint256 matronId,\r\n    uint256 sireId,\r\n    uint256 generation,\r\n    uint256 genes\r\n  );\r\n}\r\n\r\ncontract ZombieFeeding is ZombieFactory {\r\n\r\n  KittyInterface kittyContract;\r\n\r\n  modifier onlyOwnerOf(uint _zombieId) {\r\n    require(msg.sender == zombieToOwner[_zombieId]);\r\n    _;\r\n  }\r\n\r\n  function setKittyContractAddress(address _address) external onlyOwner {\r\n    kittyContract = KittyInterface(_address);\r\n  }\r\n\r\n  function _triggerCooldown(Zombie storage _zombie) internal {\r\n    _zombie.readyTime = uint32(block.timestamp + cooldownTime);\r\n  }\r\n\r\n  function _isReady(Zombie storage _zombie) internal view returns (bool) {\r\n      return (_zombie.readyTime <= block.timestamp);\r\n  }\r\n\r\n  function feedAndMultiply(uint _zombieId, uint _targetDna, string memory _species) internal onlyOwnerOf(_zombieId) {\r\n    Zombie storage myZombie = zombies[_zombieId];\r\n    require(_isReady(myZombie));\r\n    _targetDna = _targetDna % dnaModulus;\r\n    uint newDna = (myZombie.dna + _targetDna) / 2;\r\n    if (keccak256(abi.encodePacked(_species)) == keccak256(\"kitty\")) {\r\n      newDna = newDna - newDna % 100 + 99;\r\n    }\r\n    _createZombie(\"NoName\", newDna);\r\n    _triggerCooldown(myZombie);\r\n  }\r\n\r\n  function feedOnKitty(uint _zombieId, uint _kittyId) public {\r\n    uint kittyDna;\r\n    (,,,,,,,,,kittyDna) = kittyContract.getKitty(_kittyId);\r\n    feedAndMultiply(_zombieId, kittyDna, \"kitty\");\r\n  }\r\n}\r\n",
  "sourcePath": "C:\\test\\0_Blockchain\\contracts\\zombiefeeding.sol",
  "compiler": {
    "name": "solc",
    "version": "0.8.0+commit.c7dfd78e.Emscripten.clang"
  },
  "schemaVersion": "3.4.10",
  "updatedAt": "2022-09-26T13:26:48.269Z",
  "devdoc": {
    "kind": "dev",
    "methods": {
      "_Ownable()": {
        "details": "The Ownable constructor sets the original `owner` of the contract to the sender account."
      },
      "transferOwnership(address)": {
        "details": "Allows the current owner to transfer control of the contract to a newOwner.",
        "params": {
          "newOwner": "The address to transfer ownership to."
        }
      }
    },
    "version": 1
  },
  "userdoc": {
    "kind": "user",
    "methods": {},
    "version": 1
  }
}